{
  "address": "0xB4567d0d143B95C4d964E97d4Af905f3eA3c7841",
  "abi": [
    {
      "inputs": [
        {
          "internalType": "address",
          "name": "poolRegistry_",
          "type": "address"
        }
      ],
      "stateMutability": "nonpayable",
      "type": "constructor"
    },
    {
      "inputs": [
        {
          "internalType": "address",
          "name": "market",
          "type": "address"
        },
        {
          "internalType": "enum Action",
          "name": "action",
          "type": "uint8"
        }
      ],
      "name": "ActionPaused",
      "type": "error"
    },
    {
      "inputs": [
        {
          "internalType": "address",
          "name": "market",
          "type": "address"
        },
        {
          "internalType": "uint256",
          "name": "cap",
          "type": "uint256"
        }
      ],
      "name": "BorrowCapExceeded",
      "type": "error"
    },
    {
      "inputs": [
        {
          "internalType": "uint256",
          "name": "expectedLessThanOrEqualTo",
          "type": "uint256"
        },
        {
          "internalType": "uint256",
          "name": "actual",
          "type": "uint256"
        }
      ],
      "name": "CollateralExceedsThreshold",
      "type": "error"
    },
    {
      "inputs": [],
      "name": "ComptrollerMismatch",
      "type": "error"
    },
    {
      "inputs": [],
      "name": "DelegationStatusUnchanged",
      "type": "error"
    },
    {
      "inputs": [
        {
          "internalType": "uint256",
          "name": "collateralToSeize",
          "type": "uint256"
        },
        {
          "internalType": "uint256",
          "name": "availableCollateral",
          "type": "uint256"
        }
      ],
      "name": "InsufficientCollateral",
      "type": "error"
    },
    {
      "inputs": [],
      "name": "InsufficientLiquidity",
      "type": "error"
    },
    {
      "inputs": [],
      "name": "InsufficientShortfall",
      "type": "error"
    },
    {
      "inputs": [],
      "name": "InvalidCollateralFactor",
      "type": "error"
    },
    {
      "inputs": [],
      "name": "InvalidLiquidationThreshold",
      "type": "error"
    },
    {
      "inputs": [
        {
          "internalType": "address",
          "name": "market",
          "type": "address"
        }
      ],
      "name": "MarketAlreadyListed",
      "type": "error"
    },
    {
      "inputs": [
        {
          "internalType": "address",
          "name": "leToken",
          "type": "address"
        },
        {
          "internalType": "address",
          "name": "user",
          "type": "address"
        }
      ],
      "name": "MarketNotCollateral",
      "type": "error"
    },
    {
      "inputs": [
        {
          "internalType": "address",
          "name": "market",
          "type": "address"
        }
      ],
      "name": "MarketNotListed",
      "type": "error"
    },
    {
      "inputs": [
        {
          "internalType": "uint256",
          "name": "loopsLimit",
          "type": "uint256"
        },
        {
          "internalType": "uint256",
          "name": "requiredLoops",
          "type": "uint256"
        }
      ],
      "name": "MaxLoopsLimitExceeded",
      "type": "error"
    },
    {
      "inputs": [
        {
          "internalType": "uint256",
          "name": "expectedGreaterThan",
          "type": "uint256"
        },
        {
          "internalType": "uint256",
          "name": "actual",
          "type": "uint256"
        }
      ],
      "name": "MinimalCollateralViolated",
      "type": "error"
    },
    {
      "inputs": [],
      "name": "NonzeroBorrowBalance",
      "type": "error"
    },
    {
      "inputs": [
        {
          "internalType": "address",
          "name": "leToken",
          "type": "address"
        }
      ],
      "name": "PriceError",
      "type": "error"
    },
    {
      "inputs": [
        {
          "internalType": "address",
          "name": "leToken",
          "type": "address"
        },
        {
          "internalType": "address",
          "name": "user",
          "type": "address"
        }
      ],
      "name": "SnapshotError",
      "type": "error"
    },
    {
      "inputs": [
        {
          "internalType": "address",
          "name": "market",
          "type": "address"
        },
        {
          "internalType": "uint256",
          "name": "cap",
          "type": "uint256"
        }
      ],
      "name": "SupplyCapExceeded",
      "type": "error"
    },
    {
      "inputs": [],
      "name": "TooMuchRepay",
      "type": "error"
    },
    {
      "inputs": [
        {
          "internalType": "address",
          "name": "sender",
          "type": "address"
        },
        {
          "internalType": "address",
          "name": "calledContract",
          "type": "address"
        },
        {
          "internalType": "string",
          "name": "methodSignature",
          "type": "string"
        }
      ],
      "name": "Unauthorized",
      "type": "error"
    },
    {
      "inputs": [
        {
          "internalType": "address",
          "name": "expectedSender",
          "type": "address"
        },
        {
          "internalType": "address",
          "name": "actualSender",
          "type": "address"
        }
      ],
      "name": "UnexpectedSender",
      "type": "error"
    },
    {
      "inputs": [],
      "name": "ZeroAddressNotAllowed",
      "type": "error"
    },
    {
      "anonymous": false,
      "inputs": [
        {
          "indexed": false,
          "internalType": "contract LeToken",
          "name": "leToken",
          "type": "address"
        },
        {
          "indexed": false,
          "internalType": "enum Action",
          "name": "action",
          "type": "uint8"
        },
        {
          "indexed": false,
          "internalType": "bool",
          "name": "pauseState",
          "type": "bool"
        }
      ],
      "name": "ActionPausedMarket",
      "type": "event"
    },
    {
      "anonymous": false,
      "inputs": [
        {
          "indexed": true,
          "internalType": "address",
          "name": "approver",
          "type": "address"
        },
        {
          "indexed": true,
          "internalType": "address",
          "name": "delegate",
          "type": "address"
        },
        {
          "indexed": false,
          "internalType": "bool",
          "name": "approved",
          "type": "bool"
        }
      ],
      "name": "DelegateUpdated",
      "type": "event"
    },
    {
      "anonymous": false,
      "inputs": [
        {
          "indexed": false,
          "internalType": "uint8",
          "name": "version",
          "type": "uint8"
        }
      ],
      "name": "Initialized",
      "type": "event"
    },
    {
      "anonymous": false,
      "inputs": [
        {
          "indexed": true,
          "internalType": "address",
          "name": "leToken",
          "type": "address"
        },
        {
          "indexed": false,
          "internalType": "bool",
          "name": "enable",
          "type": "bool"
        }
      ],
      "name": "IsForcedLiquidationEnabledUpdated",
      "type": "event"
    },
    {
      "anonymous": false,
      "inputs": [
        {
          "indexed": true,
          "internalType": "contract LeToken",
          "name": "leToken",
          "type": "address"
        },
        {
          "indexed": true,
          "internalType": "address",
          "name": "account",
          "type": "address"
        }
      ],
      "name": "MarketEntered",
      "type": "event"
    },
    {
      "anonymous": false,
      "inputs": [
        {
          "indexed": true,
          "internalType": "contract LeToken",
          "name": "leToken",
          "type": "address"
        },
        {
          "indexed": true,
          "internalType": "address",
          "name": "account",
          "type": "address"
        }
      ],
      "name": "MarketExited",
      "type": "event"
    },
    {
      "anonymous": false,
      "inputs": [
        {
          "indexed": false,
          "internalType": "contract LeToken",
          "name": "leToken",
          "type": "address"
        }
      ],
      "name": "MarketSupported",
      "type": "event"
    },
    {
      "anonymous": false,
      "inputs": [
        {
          "indexed": false,
          "internalType": "uint256",
          "name": "oldMaxLoopsLimit",
          "type": "uint256"
        },
        {
          "indexed": false,
          "internalType": "uint256",
          "name": "newmaxLoopsLimit",
          "type": "uint256"
        }
      ],
      "name": "MaxLoopsLimitUpdated",
      "type": "event"
    },
    {
      "anonymous": false,
      "inputs": [
        {
          "indexed": false,
          "internalType": "address",
          "name": "oldAccessControlManager",
          "type": "address"
        },
        {
          "indexed": false,
          "internalType": "address",
          "name": "newAccessControlManager",
          "type": "address"
        }
      ],
      "name": "NewAccessControlManager",
      "type": "event"
    },
    {
      "anonymous": false,
      "inputs": [
        {
          "indexed": true,
          "internalType": "contract LeToken",
          "name": "leToken",
          "type": "address"
        },
        {
          "indexed": false,
          "internalType": "uint256",
          "name": "newBorrowCap",
          "type": "uint256"
        }
      ],
      "name": "NewBorrowCap",
      "type": "event"
    },
    {
      "anonymous": false,
      "inputs": [
        {
          "indexed": false,
          "internalType": "uint256",
          "name": "oldCloseFactorMantissa",
          "type": "uint256"
        },
        {
          "indexed": false,
          "internalType": "uint256",
          "name": "newCloseFactorMantissa",
          "type": "uint256"
        }
      ],
      "name": "NewCloseFactor",
      "type": "event"
    },
    {
      "anonymous": false,
      "inputs": [
        {
          "indexed": false,
          "internalType": "contract LeToken",
          "name": "leToken",
          "type": "address"
        },
        {
          "indexed": false,
          "internalType": "uint256",
          "name": "oldCollateralFactorMantissa",
          "type": "uint256"
        },
        {
          "indexed": false,
          "internalType": "uint256",
          "name": "newCollateralFactorMantissa",
          "type": "uint256"
        }
      ],
      "name": "NewCollateralFactor",
      "type": "event"
    },
    {
      "anonymous": false,
      "inputs": [
        {
          "indexed": false,
          "internalType": "uint256",
          "name": "oldLiquidationIncentiveMantissa",
          "type": "uint256"
        },
        {
          "indexed": false,
          "internalType": "uint256",
          "name": "newLiquidationIncentiveMantissa",
          "type": "uint256"
        }
      ],
      "name": "NewLiquidationIncentive",
      "type": "event"
    },
    {
      "anonymous": false,
      "inputs": [
        {
          "indexed": false,
          "internalType": "contract LeToken",
          "name": "leToken",
          "type": "address"
        },
        {
          "indexed": false,
          "internalType": "uint256",
          "name": "oldLiquidationThresholdMantissa",
          "type": "uint256"
        },
        {
          "indexed": false,
          "internalType": "uint256",
          "name": "newLiquidationThresholdMantissa",
          "type": "uint256"
        }
      ],
      "name": "NewLiquidationThreshold",
      "type": "event"
    },
    {
      "anonymous": false,
      "inputs": [
        {
          "indexed": false,
          "internalType": "uint256",
          "name": "oldMinLiquidatableCollateral",
          "type": "uint256"
        },
        {
          "indexed": false,
          "internalType": "uint256",
          "name": "newMinLiquidatableCollateral",
          "type": "uint256"
        }
      ],
      "name": "NewMinLiquidatableCollateral",
      "type": "event"
    },
    {
      "anonymous": false,
      "inputs": [
        {
          "indexed": false,
          "internalType": "contract ResilientOracleInterface",
          "name": "oldPriceOracle",
          "type": "address"
        },
        {
          "indexed": false,
          "internalType": "contract ResilientOracleInterface",
          "name": "newPriceOracle",
          "type": "address"
        }
      ],
      "name": "NewPriceOracle",
      "type": "event"
    },
    {
      "anonymous": false,
      "inputs": [
        {
          "indexed": false,
          "internalType": "contract IPrime",
          "name": "oldPrimeToken",
          "type": "address"
        },
        {
          "indexed": false,
          "internalType": "contract IPrime",
          "name": "newPrimeToken",
          "type": "address"
        }
      ],
      "name": "NewPrimeToken",
      "type": "event"
    },
    {
      "anonymous": false,
      "inputs": [
        {
          "indexed": true,
          "internalType": "address",
          "name": "rewardsDistributor",
          "type": "address"
        },
        {
          "indexed": true,
          "internalType": "address",
          "name": "rewardToken",
          "type": "address"
        }
      ],
      "name": "NewRewardsDistributor",
      "type": "event"
    },
    {
      "anonymous": false,
      "inputs": [
        {
          "indexed": true,
          "internalType": "contract LeToken",
          "name": "leToken",
          "type": "address"
        },
        {
          "indexed": false,
          "internalType": "uint256",
          "name": "newSupplyCap",
          "type": "uint256"
        }
      ],
      "name": "NewSupplyCap",
      "type": "event"
    },
    {
      "anonymous": false,
      "inputs": [
        {
          "indexed": true,
          "internalType": "address",
          "name": "previousOwner",
          "type": "address"
        },
        {
          "indexed": true,
          "internalType": "address",
          "name": "newOwner",
          "type": "address"
        }
      ],
      "name": "OwnershipTransferStarted",
      "type": "event"
    },
    {
      "anonymous": false,
      "inputs": [
        {
          "indexed": true,
          "internalType": "address",
          "name": "previousOwner",
          "type": "address"
        },
        {
          "indexed": true,
          "internalType": "address",
          "name": "newOwner",
          "type": "address"
        }
      ],
      "name": "OwnershipTransferred",
      "type": "event"
    },
    {
      "inputs": [],
      "name": "acceptOwnership",
      "outputs": [],
      "stateMutability": "nonpayable",
      "type": "function"
    },
    {
      "inputs": [],
      "name": "accessControlManager",
      "outputs": [
        {
          "internalType": "contract IAccessControlManagerV8",
          "name": "",
          "type": "address"
        }
      ],
      "stateMutability": "view",
      "type": "function"
    },
    {
      "inputs": [
        {
          "internalType": "address",
          "name": "",
          "type": "address"
        },
        {
          "internalType": "uint256",
          "name": "",
          "type": "uint256"
        }
      ],
      "name": "accountAssets",
      "outputs": [
        {
          "internalType": "contract LeToken",
          "name": "",
          "type": "address"
        }
      ],
      "stateMutability": "view",
      "type": "function"
    },
    {
      "inputs": [
        {
          "internalType": "address",
          "name": "market",
          "type": "address"
        },
        {
          "internalType": "enum Action",
          "name": "action",
          "type": "uint8"
        }
      ],
      "name": "actionPaused",
      "outputs": [
        {
          "internalType": "bool",
          "name": "",
          "type": "bool"
        }
      ],
      "stateMutability": "view",
      "type": "function"
    },
    {
      "inputs": [
        {
          "internalType": "contract RewardsDistributor",
          "name": "_rewardsDistributor",
          "type": "address"
        }
      ],
      "name": "addRewardsDistributor",
      "outputs": [],
      "stateMutability": "nonpayable",
      "type": "function"
    },
    {
      "inputs": [
        {
          "internalType": "uint256",
          "name": "",
          "type": "uint256"
        }
      ],
      "name": "allMarkets",
      "outputs": [
        {
          "internalType": "contract LeToken",
          "name": "",
          "type": "address"
        }
      ],
      "stateMutability": "view",
      "type": "function"
    },
    {
      "inputs": [
        {
          "internalType": "address",
          "name": "",
          "type": "address"
        },
        {
          "internalType": "address",
          "name": "",
          "type": "address"
        }
      ],
      "name": "approvedDelegates",
      "outputs": [
        {
          "internalType": "bool",
          "name": "",
          "type": "bool"
        }
      ],
      "stateMutability": "view",
      "type": "function"
    },
    {
      "inputs": [
        {
          "internalType": "address",
          "name": "",
          "type": "address"
        }
      ],
      "name": "borrowCaps",
      "outputs": [
        {
          "internalType": "uint256",
          "name": "",
          "type": "uint256"
        }
      ],
      "stateMutability": "view",
      "type": "function"
    },
    {
      "inputs": [
        {
          "internalType": "address",
          "name": "leToken",
          "type": "address"
        },
        {
          "internalType": "address",
          "name": "borrower",
          "type": "address"
        },
        {
          "internalType": "uint256",
          "name": "borrowAmount",
          "type": "uint256"
        }
      ],
      "name": "borrowVerify",
      "outputs": [],
      "stateMutability": "nonpayable",
      "type": "function"
    },
    {
      "inputs": [
        {
          "internalType": "address",
          "name": "account",
          "type": "address"
        },
        {
          "internalType": "contract LeToken",
          "name": "leToken",
          "type": "address"
        }
      ],
      "name": "checkMembership",
      "outputs": [
        {
          "internalType": "bool",
          "name": "",
          "type": "bool"
        }
      ],
      "stateMutability": "view",
      "type": "function"
    },
    {
      "inputs": [],
      "name": "closeFactorMantissa",
      "outputs": [
        {
          "internalType": "uint256",
          "name": "",
          "type": "uint256"
        }
      ],
      "stateMutability": "view",
      "type": "function"
    },
    {
      "inputs": [
        {
          "internalType": "address[]",
          "name": "leTokens",
          "type": "address[]"
        }
      ],
      "name": "enterMarkets",
      "outputs": [
        {
          "internalType": "uint256[]",
          "name": "",
          "type": "uint256[]"
        }
      ],
      "stateMutability": "nonpayable",
      "type": "function"
    },
    {
      "inputs": [
        {
          "internalType": "address",
          "name": "leTokenAddress",
          "type": "address"
        },
        {
          "internalType": "bytes[]",
          "name": "priceUpdateData",
          "type": "bytes[]"
        }
      ],
      "name": "exitMarket",
      "outputs": [
        {
          "internalType": "uint256",
          "name": "",
          "type": "uint256"
        }
      ],
      "stateMutability": "nonpayable",
      "type": "function"
    },
    {
      "inputs": [
        {
          "internalType": "address",
          "name": "account",
          "type": "address"
        }
      ],
      "name": "getAccountLiquidity",
      "outputs": [
        {
          "internalType": "uint256",
          "name": "error",
          "type": "uint256"
        },
        {
          "internalType": "uint256",
          "name": "liquidity",
          "type": "uint256"
        },
        {
          "internalType": "uint256",
          "name": "shortfall",
          "type": "uint256"
        }
      ],
      "stateMutability": "view",
      "type": "function"
    },
    {
      "inputs": [],
      "name": "getAllMarkets",
      "outputs": [
        {
          "internalType": "contract LeToken[]",
          "name": "",
          "type": "address[]"
        }
      ],
      "stateMutability": "view",
      "type": "function"
    },
    {
      "inputs": [
        {
          "internalType": "address",
          "name": "account",
          "type": "address"
        }
      ],
      "name": "getAssetsIn",
      "outputs": [
        {
          "internalType": "contract LeToken[]",
          "name": "",
          "type": "address[]"
        }
      ],
      "stateMutability": "view",
      "type": "function"
    },
    {
      "inputs": [
        {
          "internalType": "address",
          "name": "account",
          "type": "address"
        }
      ],
      "name": "getBorrowingPower",
      "outputs": [
        {
          "internalType": "uint256",
          "name": "error",
          "type": "uint256"
        },
        {
          "internalType": "uint256",
          "name": "liquidity",
          "type": "uint256"
        },
        {
          "internalType": "uint256",
          "name": "shortfall",
          "type": "uint256"
        }
      ],
      "stateMutability": "view",
      "type": "function"
    },
    {
      "inputs": [
        {
          "internalType": "address",
          "name": "account",
          "type": "address"
        },
        {
          "internalType": "address",
          "name": "leTokenModify",
          "type": "address"
        },
        {
          "internalType": "uint256",
          "name": "redeemTokens",
          "type": "uint256"
        },
        {
          "internalType": "uint256",
          "name": "borrowAmount",
          "type": "uint256"
        }
      ],
      "name": "getHypotheticalAccountLiquidity",
      "outputs": [
        {
          "internalType": "uint256",
          "name": "error",
          "type": "uint256"
        },
        {
          "internalType": "uint256",
          "name": "liquidity",
          "type": "uint256"
        },
        {
          "internalType": "uint256",
          "name": "shortfall",
          "type": "uint256"
        }
      ],
      "stateMutability": "view",
      "type": "function"
    },
    {
      "inputs": [],
      "name": "getRewardDistributors",
      "outputs": [
        {
          "internalType": "contract RewardsDistributor[]",
          "name": "",
          "type": "address[]"
        }
      ],
      "stateMutability": "view",
      "type": "function"
    },
    {
      "inputs": [
        {
          "internalType": "address",
          "name": "leToken",
          "type": "address"
        }
      ],
      "name": "getRewardsByMarket",
      "outputs": [
        {
          "components": [
            {
              "internalType": "address",
              "name": "rewardToken",
              "type": "address"
            },
            {
              "internalType": "uint256",
              "name": "supplySpeed",
              "type": "uint256"
            },
            {
              "internalType": "uint256",
              "name": "borrowSpeed",
              "type": "uint256"
            }
          ],
          "internalType": "struct ComptrollerStorage.RewardSpeeds[]",
          "name": "rewardSpeeds",
          "type": "tuple[]"
        }
      ],
      "stateMutability": "view",
      "type": "function"
    },
    {
      "inputs": [
        {
          "internalType": "address",
          "name": "user",
          "type": "address"
        }
      ],
      "name": "healAccount",
      "outputs": [],
      "stateMutability": "nonpayable",
      "type": "function"
    },
    {
      "inputs": [
        {
          "internalType": "uint256",
          "name": "loopLimit",
          "type": "uint256"
        },
        {
          "internalType": "address",
          "name": "accessControlManager",
          "type": "address"
        }
      ],
      "name": "initialize",
      "outputs": [],
      "stateMutability": "nonpayable",
      "type": "function"
    },
    {
      "inputs": [],
      "name": "isComptroller",
      "outputs": [
        {
          "internalType": "bool",
          "name": "",
          "type": "bool"
        }
      ],
      "stateMutability": "pure",
      "type": "function"
    },
    {
      "inputs": [
        {
          "internalType": "address",
          "name": "",
          "type": "address"
        }
      ],
      "name": "isForcedLiquidationEnabled",
      "outputs": [
        {
          "internalType": "bool",
          "name": "",
          "type": "bool"
        }
      ],
      "stateMutability": "view",
      "type": "function"
    },
    {
      "inputs": [
        {
          "internalType": "contract LeToken",
          "name": "leToken",
          "type": "address"
        }
      ],
      "name": "isMarketListed",
      "outputs": [
        {
          "internalType": "bool",
          "name": "",
          "type": "bool"
        }
      ],
      "stateMutability": "view",
      "type": "function"
    },
    {
      "inputs": [
        {
          "internalType": "address",
          "name": "borrower",
          "type": "address"
        },
        {
          "components": [
            {
              "internalType": "contract LeToken",
              "name": "leTokenCollateral",
              "type": "address"
            },
            {
              "internalType": "contract LeToken",
              "name": "leTokenBorrowed",
              "type": "address"
            },
            {
              "internalType": "uint256",
              "name": "repayAmount",
              "type": "uint256"
            }
          ],
          "internalType": "struct ComptrollerStorage.LiquidationOrder[]",
          "name": "orders",
          "type": "tuple[]"
        },
        {
          "internalType": "bytes[]",
          "name": "priceUpdateData",
          "type": "bytes[]"
        }
      ],
      "name": "liquidateAccount",
      "outputs": [],
      "stateMutability": "nonpayable",
      "type": "function"
    },
    {
      "inputs": [
        {
          "internalType": "address",
          "name": "leTokenBorrowed",
          "type": "address"
        },
        {
          "internalType": "address",
          "name": "leTokenCollateral",
          "type": "address"
        },
        {
          "internalType": "address",
          "name": "liquidator",
          "type": "address"
        },
        {
          "internalType": "address",
          "name": "borrower",
          "type": "address"
        },
        {
          "internalType": "uint256",
          "name": "actualRepayAmount",
          "type": "uint256"
        },
        {
          "internalType": "uint256",
          "name": "seizeTokens",
          "type": "uint256"
        }
      ],
      "name": "liquidateBorrowVerify",
      "outputs": [],
      "stateMutability": "nonpayable",
      "type": "function"
    },
    {
      "inputs": [
        {
          "internalType": "address",
          "name": "leTokenBorrowed",
          "type": "address"
        },
        {
          "internalType": "address",
          "name": "leTokenCollateral",
          "type": "address"
        },
        {
          "internalType": "uint256",
          "name": "actualRepayAmount",
          "type": "uint256"
        }
      ],
      "name": "liquidateCalculateSeizeTokens",
      "outputs": [
        {
          "internalType": "uint256",
          "name": "error",
          "type": "uint256"
        },
        {
          "internalType": "uint256",
          "name": "tokensToSeize",
          "type": "uint256"
        }
      ],
      "stateMutability": "view",
      "type": "function"
    },
    {
      "inputs": [],
      "name": "liquidationIncentiveMantissa",
      "outputs": [
        {
          "internalType": "uint256",
          "name": "",
          "type": "uint256"
        }
      ],
      "stateMutability": "view",
      "type": "function"
    },
    {
      "inputs": [
        {
          "internalType": "address",
          "name": "",
          "type": "address"
        }
      ],
      "name": "markets",
      "outputs": [
        {
          "internalType": "bool",
          "name": "isListed",
          "type": "bool"
        },
        {
          "internalType": "uint256",
          "name": "collateralFactorMantissa",
          "type": "uint256"
        },
        {
          "internalType": "uint256",
          "name": "liquidationThresholdMantissa",
          "type": "uint256"
        }
      ],
      "stateMutability": "view",
      "type": "function"
    },
    {
      "inputs": [],
      "name": "maxLoopsLimit",
      "outputs": [
        {
          "internalType": "uint256",
          "name": "",
          "type": "uint256"
        }
      ],
      "stateMutability": "view",
      "type": "function"
    },
    {
      "inputs": [],
      "name": "minLiquidatableCollateral",
      "outputs": [
        {
          "internalType": "uint256",
          "name": "",
          "type": "uint256"
        }
      ],
      "stateMutability": "view",
      "type": "function"
    },
    {
      "inputs": [
        {
          "internalType": "address",
          "name": "leToken",
          "type": "address"
        },
        {
          "internalType": "address",
          "name": "minter",
          "type": "address"
        },
        {
          "internalType": "uint256",
          "name": "actualMintAmount",
          "type": "uint256"
        },
        {
          "internalType": "uint256",
          "name": "mintTokens",
          "type": "uint256"
        }
      ],
      "name": "mintVerify",
      "outputs": [],
      "stateMutability": "nonpayable",
      "type": "function"
    },
    {
      "inputs": [],
      "name": "oracle",
      "outputs": [
        {
          "internalType": "contract ResilientOracleInterface",
          "name": "",
          "type": "address"
        }
      ],
      "stateMutability": "view",
      "type": "function"
    },
    {
      "inputs": [],
      "name": "owner",
      "outputs": [
        {
          "internalType": "address",
          "name": "",
          "type": "address"
        }
      ],
      "stateMutability": "view",
      "type": "function"
    },
    {
      "inputs": [],
      "name": "pendingOwner",
      "outputs": [
        {
          "internalType": "address",
          "name": "",
          "type": "address"
        }
      ],
      "stateMutability": "view",
      "type": "function"
    },
    {
      "inputs": [],
      "name": "poolRegistry",
      "outputs": [
        {
          "internalType": "address",
          "name": "",
          "type": "address"
        }
      ],
      "stateMutability": "view",
      "type": "function"
    },
    {
      "inputs": [
        {
          "internalType": "address",
          "name": "leToken",
          "type": "address"
        },
        {
          "internalType": "address",
          "name": "borrower",
          "type": "address"
        },
        {
          "internalType": "uint256",
          "name": "borrowAmount",
          "type": "uint256"
        },
        {
          "internalType": "bytes[]",
          "name": "priceUpdateData",
          "type": "bytes[]"
        }
      ],
      "name": "preBorrowHook",
      "outputs": [],
      "stateMutability": "nonpayable",
      "type": "function"
    },
    {
      "inputs": [
        {
          "internalType": "address",
          "name": "leTokenBorrowed",
          "type": "address"
        },
        {
          "internalType": "address",
          "name": "leTokenCollateral",
          "type": "address"
        },
        {
          "internalType": "address",
          "name": "borrower",
          "type": "address"
        },
        {
          "internalType": "uint256",
          "name": "repayAmount",
          "type": "uint256"
        },
        {
          "internalType": "bool",
          "name": "skipLiquidityCheck",
          "type": "bool"
        },
        {
          "internalType": "bytes[]",
          "name": "priceUpdateData",
          "type": "bytes[]"
        }
      ],
      "name": "preLiquidateHook",
      "outputs": [],
      "stateMutability": "nonpayable",
      "type": "function"
    },
    {
      "inputs": [
        {
          "internalType": "address",
          "name": "leToken",
          "type": "address"
        },
        {
          "internalType": "address",
          "name": "minter",
          "type": "address"
        },
        {
          "internalType": "uint256",
          "name": "mintAmount",
          "type": "uint256"
        }
      ],
      "name": "preMintHook",
      "outputs": [],
      "stateMutability": "nonpayable",
      "type": "function"
    },
    {
      "inputs": [
        {
          "internalType": "address",
          "name": "leToken",
          "type": "address"
        },
        {
          "internalType": "address",
          "name": "redeemer",
          "type": "address"
        },
        {
          "internalType": "uint256",
          "name": "redeemTokens",
          "type": "uint256"
        },
        {
          "internalType": "bytes[]",
          "name": "priceUpdateData",
          "type": "bytes[]"
        }
      ],
      "name": "preRedeemHook",
      "outputs": [],
      "stateMutability": "nonpayable",
      "type": "function"
    },
    {
      "inputs": [
        {
          "internalType": "address",
          "name": "leToken",
          "type": "address"
        },
        {
          "internalType": "address",
          "name": "borrower",
          "type": "address"
        },
        {
          "internalType": "bytes[]",
          "name": "priceUpdateData",
          "type": "bytes[]"
        }
      ],
      "name": "preRepayHook",
      "outputs": [],
      "stateMutability": "nonpayable",
      "type": "function"
    },
    {
      "inputs": [
        {
          "internalType": "address",
          "name": "leTokenCollateral",
          "type": "address"
        },
        {
          "internalType": "address",
          "name": "seizerContract",
          "type": "address"
        },
        {
          "internalType": "address",
          "name": "liquidator",
          "type": "address"
        },
        {
          "internalType": "address",
          "name": "borrower",
          "type": "address"
        }
      ],
      "name": "preSeizeHook",
      "outputs": [],
      "stateMutability": "nonpayable",
      "type": "function"
    },
    {
      "inputs": [
        {
          "internalType": "address",
          "name": "leToken",
          "type": "address"
        },
        {
          "internalType": "address",
          "name": "src",
          "type": "address"
        },
        {
          "internalType": "address",
          "name": "dst",
          "type": "address"
        },
        {
          "internalType": "uint256",
          "name": "transferTokens",
          "type": "uint256"
        }
      ],
      "name": "preTransferHook",
      "outputs": [],
      "stateMutability": "nonpayable",
      "type": "function"
    },
    {
      "inputs": [],
      "name": "prime",
      "outputs": [
        {
          "internalType": "contract IPrime",
          "name": "",
          "type": "address"
        }
      ],
      "stateMutability": "view",
      "type": "function"
    },
    {
      "inputs": [
        {
          "internalType": "address",
          "name": "leToken",
          "type": "address"
        },
        {
          "internalType": "address",
          "name": "redeemer",
          "type": "address"
        },
        {
          "internalType": "uint256",
          "name": "redeemAmount",
          "type": "uint256"
        },
        {
          "internalType": "uint256",
          "name": "redeemTokens",
          "type": "uint256"
        }
      ],
      "name": "redeemVerify",
      "outputs": [],
      "stateMutability": "nonpayable",
      "type": "function"
    },
    {
      "inputs": [],
      "name": "renounceOwnership",
      "outputs": [],
      "stateMutability": "nonpayable",
      "type": "function"
    },
    {
      "inputs": [
        {
          "internalType": "address",
          "name": "leToken",
          "type": "address"
        },
        {
          "internalType": "address",
          "name": "payer",
          "type": "address"
        },
        {
          "internalType": "address",
          "name": "borrower",
          "type": "address"
        },
        {
          "internalType": "uint256",
          "name": "actualRepayAmount",
          "type": "uint256"
        },
        {
          "internalType": "uint256",
          "name": "borrowerIndex",
          "type": "uint256"
        }
      ],
      "name": "repayBorrowVerify",
      "outputs": [],
      "stateMutability": "nonpayable",
      "type": "function"
    },
    {
      "inputs": [
        {
          "internalType": "address",
          "name": "leTokenCollateral",
          "type": "address"
        },
        {
          "internalType": "address",
          "name": "leTokenBorrowed",
          "type": "address"
        },
        {
          "internalType": "address",
          "name": "liquidator",
          "type": "address"
        },
        {
          "internalType": "address",
          "name": "borrower",
          "type": "address"
        },
        {
          "internalType": "uint256",
          "name": "seizeTokens",
          "type": "uint256"
        }
      ],
      "name": "seizeVerify",
      "outputs": [],
      "stateMutability": "nonpayable",
      "type": "function"
    },
    {
      "inputs": [
        {
          "internalType": "address",
          "name": "accessControlManager_",
          "type": "address"
        }
      ],
      "name": "setAccessControlManager",
      "outputs": [],
      "stateMutability": "nonpayable",
      "type": "function"
    },
    {
      "inputs": [
        {
          "internalType": "contract LeToken[]",
          "name": "marketsList",
          "type": "address[]"
        },
        {
          "internalType": "enum Action[]",
          "name": "actionsList",
          "type": "uint8[]"
        },
        {
          "internalType": "bool",
          "name": "paused",
          "type": "bool"
        }
      ],
      "name": "setActionsPaused",
      "outputs": [],
      "stateMutability": "nonpayable",
      "type": "function"
    },
    {
      "inputs": [
        {
          "internalType": "uint256",
          "name": "newCloseFactorMantissa",
          "type": "uint256"
        }
      ],
      "name": "setCloseFactor",
      "outputs": [],
      "stateMutability": "nonpayable",
      "type": "function"
    },
    {
      "inputs": [
        {
          "internalType": "contract LeToken",
          "name": "leToken",
          "type": "address"
        },
        {
          "internalType": "uint256",
          "name": "newCollateralFactorMantissa",
          "type": "uint256"
        },
        {
          "internalType": "uint256",
          "name": "newLiquidationThresholdMantissa",
          "type": "uint256"
        }
      ],
      "name": "setCollateralFactor",
      "outputs": [],
      "stateMutability": "nonpayable",
      "type": "function"
    },
    {
      "inputs": [
        {
          "internalType": "address",
          "name": "leTokenBorrowed",
          "type": "address"
        },
        {
          "internalType": "bool",
          "name": "enable",
          "type": "bool"
        }
      ],
      "name": "setForcedLiquidation",
      "outputs": [],
      "stateMutability": "nonpayable",
      "type": "function"
    },
    {
      "inputs": [
        {
          "internalType": "uint256",
          "name": "newLiquidationIncentiveMantissa",
          "type": "uint256"
        }
      ],
      "name": "setLiquidationIncentive",
      "outputs": [],
      "stateMutability": "nonpayable",
      "type": "function"
    },
    {
      "inputs": [
        {
          "internalType": "contract LeToken[]",
          "name": "leTokens",
          "type": "address[]"
        },
        {
          "internalType": "uint256[]",
          "name": "newBorrowCaps",
          "type": "uint256[]"
        }
      ],
      "name": "setMarketBorrowCaps",
      "outputs": [],
      "stateMutability": "nonpayable",
      "type": "function"
    },
    {
      "inputs": [
        {
          "internalType": "contract LeToken[]",
          "name": "leTokens",
          "type": "address[]"
        },
        {
          "internalType": "uint256[]",
          "name": "newSupplyCaps",
          "type": "uint256[]"
        }
      ],
      "name": "setMarketSupplyCaps",
      "outputs": [],
      "stateMutability": "nonpayable",
      "type": "function"
    },
    {
      "inputs": [
        {
          "internalType": "uint256",
          "name": "limit",
          "type": "uint256"
        }
      ],
      "name": "setMaxLoopsLimit",
      "outputs": [],
      "stateMutability": "nonpayable",
      "type": "function"
    },
    {
      "inputs": [
        {
          "internalType": "uint256",
          "name": "newMinLiquidatableCollateral",
          "type": "uint256"
        }
      ],
      "name": "setMinLiquidatableCollateral",
      "outputs": [],
      "stateMutability": "nonpayable",
      "type": "function"
    },
    {
      "inputs": [
        {
          "internalType": "contract ResilientOracleInterface",
          "name": "newOracle",
          "type": "address"
        }
      ],
      "name": "setPriceOracle",
      "outputs": [],
      "stateMutability": "nonpayable",
      "type": "function"
    },
    {
      "inputs": [
        {
          "internalType": "contract IPrime",
          "name": "_prime",
          "type": "address"
        }
      ],
      "name": "setPrimeToken",
      "outputs": [],
      "stateMutability": "nonpayable",
      "type": "function"
    },
    {
      "inputs": [
        {
          "internalType": "address",
          "name": "",
          "type": "address"
        }
      ],
      "name": "supplyCaps",
      "outputs": [
        {
          "internalType": "uint256",
          "name": "",
          "type": "uint256"
        }
      ],
      "stateMutability": "view",
      "type": "function"
    },
    {
      "inputs": [
        {
          "internalType": "contract LeToken",
          "name": "leToken",
          "type": "address"
        }
      ],
      "name": "supportMarket",
      "outputs": [],
      "stateMutability": "nonpayable",
      "type": "function"
    },
    {
      "inputs": [
        {
          "internalType": "address",
          "name": "newOwner",
          "type": "address"
        }
      ],
      "name": "transferOwnership",
      "outputs": [],
      "stateMutability": "nonpayable",
      "type": "function"
    },
    {
      "inputs": [
        {
          "internalType": "address",
          "name": "leToken",
          "type": "address"
        },
        {
          "internalType": "address",
          "name": "src",
          "type": "address"
        },
        {
          "internalType": "address",
          "name": "dst",
          "type": "address"
        },
        {
          "internalType": "uint256",
          "name": "transferTokens",
          "type": "uint256"
        }
      ],
      "name": "transferVerify",
      "outputs": [],
      "stateMutability": "nonpayable",
      "type": "function"
    },
    {
      "inputs": [
        {
          "internalType": "address",
          "name": "delegate",
          "type": "address"
        },
        {
          "internalType": "bool",
          "name": "approved",
          "type": "bool"
        }
      ],
      "name": "updateDelegate",
      "outputs": [],
      "stateMutability": "nonpayable",
      "type": "function"
    },
    {
      "inputs": [
        {
          "internalType": "address",
          "name": "account",
          "type": "address"
        },
        {
          "internalType": "bytes[]",
          "name": "priceUpdateData",
          "type": "bytes[]"
        }
      ],
      "name": "updatePrices",
      "outputs": [],
      "stateMutability": "nonpayable",
      "type": "function"
    }
  ],
  "transactionHash": "0xca7110e1727863bcda1184322b038a37b31414113692261ad2ad8afe9e7a9d71",
  "args": [
    "0x160ED90E9bf902db379e67bE8772Ac244A268E7C"
  ],
  "numDeployments": 1,
  "solcInputHash": "47cdc25dab8d75d0890638c61746a4a2",
  "bytecode": "0x60a06040523480156200001157600080fd5b50604051620060c4380380620060c4833981016040819052620000349162000149565b6200003f816200005d565b6001600160a01b0381166080526200005662000088565b506200017b565b6001600160a01b03811662000085576040516342bcdf7f60e11b815260040160405180910390fd5b50565b600054610100900460ff1615620000f55760405162461bcd60e51b815260206004820152602760248201527f496e697469616c697a61626c653a20636f6e747261637420697320696e697469604482015266616c697a696e6760c81b606482015260840160405180910390fd5b60005460ff9081161462000147576000805460ff191660ff9081179091556040519081527f7f26b83ff96e1f2b6a682f133852f6798a09c465da95921460cefb38474024989060200160405180910390a15b565b6000602082840312156200015c57600080fd5b81516001600160a01b03811681146200017457600080fd5b9392505050565b608051615f266200019e6000396000818161081c0152613a390152615f266000f3fe608060405234801561001057600080fd5b50600436106103f05760003560e01c80637bd31a4c11610215578063be26317e11610125578063da35a26f116100b8578063de0bd99011610087578063de0bd99014610990578063e30c3978146109a3578063e85a2960146109b4578063e8755446146109c7578063f2fde38b146109d057600080fd5b8063da35a26f1461094e578063db5c65de14610961578063dce154491461096a578063ddbf54fd1461097d57600080fd5b8063c488847b116100f4578063c488847b146108ed578063c7ee005e14610915578063cab4f84c14610928578063d136af441461093b57600080fd5b8063be26317e1461089d578063c0891ba9146108a7578063c2998238146108ba578063c32094c7146108da57600080fd5b8063929fe9a1116101a8578063b0772d0b11610177578063b0772d0b1461083e578063b2068e8414610846578063b4a0bdf314610866578063b6bb882b14610877578063bd37be421461088a57600080fd5b8063929fe9a1146107b0578063a8431081146107f1578063abfceffc14610804578063afcff50f1461081757600080fd5b80638c1ac18a116101e45780638c1ac18a146107195780638da5cb5b1461073c5780638e8f294b1461074d578063921363951461079d57600080fd5b80637bd31a4c146106cd5780637dc0d1d0146106e057806380d45a2d146106f35780638b3113f61461070657600080fd5b80634e79238f116103105780635c778605116102a35780636a56947e116102725780636a56947e146106845780636d0be88d146106975780636d35bf91146106aa578063715018a6146106bd57806379ba5097146106c557600080fd5b80635c778605146106365780635cc4fdeb146106495780635ec88c791461065c57806361252fd11461066f57600080fd5b806352d84d1e116102df57806352d84d1e146105d2578063530e784f146105fd57806356aaee2d1461061057806357ce85ee1461062357600080fd5b80634e79238f1461057e57806351dff9891461051c578063520b6c74146105ac578063528a174c146105bf57600080fd5b806324aaa2201161038857806347bcc2da1161035757806347bcc2da1461052f57806347ef3b3b146105425780634a584432146105555780634ada90af1461057557600080fd5b806324aaa220146104ca578063398640b1146104dd5780633d98a1e5146104f057806341c728b91461051c57600080fd5b806312348e96116103c457806312348e961461047e578063186db48f146104915780631bc41f28146104a45780631ededc91146104b757600080fd5b80627e3dd2146103f557806302c3bcbb1461040d5780630e32cb861461043b57806310b9833814610450575b600080fd5b60015b60405190151581526020015b60405180910390f35b61042d61041b366004614f0a565b60d16020526000908152604090205481565b604051908152602001610404565b61044e610449366004614f0a565b6109e3565b005b6103f861045e366004614f27565b60d760209081526000928352604080842090915290825290205460ff1681565b61044e61048c366004614f60565b6109f7565b61044e61049f366004614fc4565b610b5d565b61044e6104b236600461502f565b610cd6565b61044e6104c536600461508b565b6110a5565b61044e6104d83660046150f4565b611122565b61044e6104eb366004615177565b6111ef565b6103f86104fe366004614f0a565b6001600160a01b0316600090815260cd602052604090205460ff1690565b61044e61052a36600461520e565b611401565b61044e61053d366004615254565b611478565b61044e6105503660046152c6565b6118a9565b61042d610563366004614f0a565b60cf6020526000908152604090205481565b61042d60cb5481565b61059161058c36600461520e565b611986565b60408051938452602084019290925290820152606001610404565b61044e6105ba366004614f60565b6119b7565b6105916105cd366004614f0a565b611a15565b6105e56105e0366004614f60565b611a40565b6040516001600160a01b039091168152602001610404565b61044e61060b366004614f0a565b611a6a565b61044e61061e366004614f0a565b611ace565b61044e610631366004615334565b611cf1565b61044e61064436600461538c565b611f2c565b61044e6106573660046153cd565b611fa2565b61059161066a366004614f0a565b6121de565b6106776121f0565b6040516104049190615402565b61044e61069236600461544f565b612252565b61044e6106a536600461544f565b6122f9565b61044e6106b83660046154a0565b612464565b61044e61250b565b61044e61251f565b61044e6106db366004615254565b612596565b60c9546105e5906001600160a01b031681565b61044e610701366004614f60565b6126ae565b61044e610714366004615504565b6126bf565b6103f8610727366004614f0a565b60d56020526000908152604090205460ff1681565b6033546001600160a01b03166105e5565b61078061075b366004614f0a565b60cd6020526000908152604090208054600182015460029092015460ff909116919083565b604080519315158452602084019290925290820152606001610404565b61044e6107ab366004614f0a565b61278c565b6103f86107be366004614f27565b6001600160a01b03808216600090815260cd60209081526040808320938616835260039093019052205460ff1692915050565b61044e6107ff366004614f60565b612b10565b610677610812366004614f0a565b612bfe565b6105e57f000000000000000000000000000000000000000000000000000000000000000081565b610677612c74565b610859610854366004614f0a565b612cd4565b6040516104049190615532565b6097546001600160a01b03166105e5565b61042d610885366004615594565b612f16565b61044e610898366004615739565b61318f565b61042d6101075481565b61044e6108b536600461538c565b613549565b6108cd6108c83660046157e5565b6137d9565b604051610404919061587e565b61044e6108e8366004614f0a565b61388f565b6109006108fb36600461538c565b613909565b60408051928352602083019190915201610404565b60d6546105e5906001600160a01b031681565b61044e610936366004614f0a565b613a34565b61044e610949366004614fc4565b613c68565b61044e61095c3660046158b6565b613e25565b61042d60d05481565b6105e56109783660046158db565b613f41565b61044e61098b366004615504565b613f79565b61044e61099e366004615594565b61403a565b6065546001600160a01b03166105e5565b6103f86109c236600461591b565b614154565b61042d60ca5481565b61044e6109de366004614f0a565b6141ab565b6109eb61421c565b6109f481614276565b50565b610a356040518060400160405280601781526020017f736574436c6f7365466163746f722875696e743235362900000000000000000081525061432d565b80670c7d713b49da00001015610aa95760405162461bcd60e51b815260206004820152602e60248201527f436c6f736520666163746f722067726561746572207468616e206d6178696d7560448201526d369031b637b9b2903330b1ba37b960911b60648201526084015b60405180910390fd5b8066b1a2bc2ec500001115610b175760405162461bcd60e51b815260206004820152602e60248201527f436c6f736520666163746f7220736d616c6c6572207468616e206d696e696d7560448201526d369031b637b9b2903330b1ba37b960911b6064820152608401610aa0565b60ca80549082905560408051828152602081018490527f3b9670cf975d26958e754b57098eaa2ac914d8d2a31b83257997b9f346110fd991015b60405180910390a15050565b610b7e604051806060016040528060288152602001615e046028913961432d565b82818115801590610b8e57508082145b610bca5760405162461bcd60e51b815260206004820152600d60248201526c1a5b9d985b1a59081a5b9c1d5d609a1b6044820152606401610aa0565b610bd3826143cb565b60005b82811015610ccd57848482818110610bf057610bf0615950565b9050602002013560cf6000898985818110610c0d57610c0d615950565b9050602002016020810190610c229190614f0a565b6001600160a01b03168152602081019190915260400160002055868682818110610c4e57610c4e615950565b9050602002016020810190610c639190614f0a565b6001600160a01b03167f6f1951b2aad10f3fc81b86d91105b413a5b3f847a34bbc5ce1904201b14438f6868684818110610c9f57610c9f615950565b90506020020135604051610cb591815260200190565b60405180910390a2610cc68161597c565b9050610bd6565b50505050505050565b610ce18460046143fe565b6001600160a01b038416600090815260cd60205260409020805460ff16610d2657604051635a9a1eb960e11b81526001600160a01b0386166004820152602401610aa0565b306001600160a01b03851603610dce57306001600160a01b0316856001600160a01b0316635fe3b5676040518163ffffffff1660e01b8152600401602060405180830381865afa158015610d7e573d6000803e3d6000fd5b505050506040513d601f19601f82011682018060405250810190610da29190615995565b6001600160a01b031614610dc957604051630c73eb0560e01b815260040160405180910390fd5b610f06565b6001600160a01b038416600090815260cd602052604090205460ff16610e1257604051635a9a1eb960e11b81526001600160a01b0385166004820152602401610aa0565b836001600160a01b0316635fe3b5676040518163ffffffff1660e01b8152600401602060405180830381865afa158015610e50573d6000803e3d6000fd5b505050506040513d601f19601f82011682018060405250810190610e749190615995565b6001600160a01b0316856001600160a01b0316635fe3b5676040518163ffffffff1660e01b8152600401602060405180830381865afa158015610ebb573d6000803e3d6000fd5b505050506040513d601f19601f82011682018060405250810190610edf9190615995565b6001600160a01b031614610f0657604051630c73eb0560e01b815260040160405180910390fd5b6001600160a01b038216600090815260038201602052604090205460ff16610f45578482604051630cdfb2db60e31b8152600401610aa09291906159b2565b60d35460005b81811015610ccd57600060d38281548110610f6857610f68615950565b60009182526020909120015460405163051d1d4f60e11b81526001600160a01b038a8116600483015290911691508190630a3a3a9e90602401600060405180830381600087803b158015610fbb57600080fd5b505af1158015610fcf573d6000803e3d6000fd5b505060405163db7954fd60e01b81526001600160a01b038416925063db7954fd9150611001908b9089906004016159b2565b600060405180830381600087803b15801561101b57600080fd5b505af115801561102f573d6000803e3d6000fd5b505060405163db7954fd60e01b81526001600160a01b038416925063db7954fd9150611061908b908a906004016159b2565b600060405180830381600087803b15801561107b57600080fd5b505af115801561108f573d6000803e3d6000fd5b50505050508061109e9061597c565b9050610f4b565b60d6546001600160a01b03161561111b5760d6546040516367994e8b60e11b81526001600160a01b039091169063cf329d16906110e890869089906004016159b2565b600060405180830381600087803b15801561110257600080fd5b505af1158015611116573d6000803e3d6000fd5b505050505b5050505050565b6111436040518060600160405280602a8152602001615e7d602a913961432d565b838261115761115282846159cc565b6143cb565b60005b828110156111e55760005b828110156111d4576111c489898481811061118257611182615950565b90506020020160208101906111979190614f0a565b8888848181106111a9576111a9615950565b90506020020160208101906111be91906159eb565b8761442a565b6111cd8161597c565b9050611165565b506111de8161597c565b905061115a565b5050505050505050565b6111fa8760056143fe565b61120585838361403a565b6001600160a01b038716600090815260cd602052604090205460ff1661124957604051635a9a1eb960e11b81526001600160a01b0388166004820152602401610aa0565b6001600160a01b038616600090815260cd602052604090205460ff1661128d57604051635a9a1eb960e11b81526001600160a01b0387166004820152602401610aa0565b6040516395dd919360e01b81526001600160a01b038681166004830152600091908916906395dd919390602401602060405180830381865afa1580156112d7573d6000803e3d6000fd5b505050506040513d601f19601f820116820180604052508101906112fb9190615a06565b9050838061132157506001600160a01b038816600090815260d5602052604090205460ff165b1561134d57808511156113475760405163e46c155960e01b815260040160405180910390fd5b50610ccd565b600061135b8761453861456c565b905060d0548160000151116113915760d0548151604051636e61bb0560e11b815260048101929092526024820152604401610aa0565b8060a001516000036113b65760405163095bf33360e01b815260040160405180910390fd5b60006113d2604051806020016040528060ca54815250846145b4565b9050808711156113f55760405163e46c155960e01b815260040160405180910390fd5b50505050505050505050565b60d6546001600160a01b0316156114725760d6546040516367994e8b60e11b81526001600160a01b039091169063cf329d169061144490869088906004016159b2565b600060405180830381600087803b15801561145e57600080fd5b505af11580156111e5573d6000803e3d6000fd5b50505050565b6114838560026143fe565b6001600160a01b038516600090815260cd602052604090205460ff166114c757604051635a9a1eb960e11b81526001600160a01b0386166004820152602401610aa0565b6001600160a01b03808616600090815260cd60209081526040808320938816835260039093019052205460ff1661150b57611501856145d4565b61150b3385614601565b61151684838361403a565b60c95460405163fc57d4df60e01b81526001600160a01b0387811660048301529091169063fc57d4df90602401602060405180830381865afa158015611560573d6000803e3d6000fd5b505050506040513d601f19601f820116820180604052508101906115849190615a06565b6000036115ae5760405162e52a7d60e41b81526001600160a01b0386166004820152602401610aa0565b6001600160a01b038516600090815260cf602052604090205460001981146116ec576000866001600160a01b03166347bd37186040518163ffffffff1660e01b8152600401602060405180830381865afa158015611610573d6000803e3d6000fd5b505050506040513d601f19601f820116820180604052508101906116349190615a06565b90506000876001600160a01b031663bbcac5576040518163ffffffff1660e01b8152600401602060405180830381865afa158015611676573d6000803e3d6000fd5b505050506040513d601f19601f8201168201806040525081019061169a9190615a06565b90506000816116a98885615a1f565b6116b39190615a1f565b9050838111156116e857604051632e649eed60e01b81526001600160a01b038a16600482015260248101859052604401610aa0565b5050505b60006116fe86886000886146fd614731565b60a0810151909150156117245760405163bb55fd2760e01b815260040160405180910390fd5b60006040518060200160405280896001600160a01b031663aa5af0fd6040518163ffffffff1660e01b8152600401602060405180830381865afa15801561176f573d6000803e3d6000fd5b505050506040513d601f19601f820116820180604052508101906117939190615a06565b905260d35490915060005b818110156113f557600060d382815481106117bb576117bb615950565b600091825260209091200154604051632352607960e01b81526001600160a01b038d811660048301528651602483015290911691508190632352607990604401600060405180830381600087803b15801561181557600080fd5b505af1158015611829573d6000803e3d6000fd5b5050604051636a95ddef60e01b81526001600160a01b038e811660048301528d811660248301528751604483015284169250636a95ddef9150606401600060405180830381600087803b15801561187f57600080fd5b505af1158015611893573d6000803e3d6000fd5b5050505050806118a29061597c565b905061179e565b60d6546001600160a01b03161561197e5760d6546040516367994e8b60e11b81526001600160a01b039091169063cf329d16906118ec9086908a906004016159b2565b600060405180830381600087803b15801561190657600080fd5b505af115801561191a573d6000803e3d6000fd5b505060d6546040516367994e8b60e11b81526001600160a01b03909116925063cf329d1691506119509087908a906004016159b2565b600060405180830381600087803b15801561196a57600080fd5b505af11580156113f5573d6000803e3d6000fd5b505050505050565b60008060008061199b888888886146fd614731565b608081015160a09091015160009a919950975095505050505050565b6119d8604051806060016040528060258152602001615e2c6025913961432d565b60d080549082905560408051828152602081018490527eb4f4f153ad7f1397564a8830fef092481e8cf6a2cd3ff04f96d10ba51200a59101610b51565b600080600080611a27856146fd61456c565b608081015160a090910151600097919650945092505050565b60ce8181548110611a5057600080fd5b6000918252602090912001546001600160a01b0316905081565b611a7261421c565b611a7b81614966565b60c980546001600160a01b038381166001600160a01b03198316179092556040519116907fd52b2b9b7e9ee655fcb95d2e5b9e0c9f69e7ef2b8e9d2d0ea78402d576d22e2290610b5190839085906159b2565b611ad661421c565b6001600160a01b038116600090815260d4602052604090205460ff1615611b305760405162461bcd60e51b815260206004820152600e60248201526d616c72656164792065786973747360901b6044820152606401610aa0565b60d354611b41611152826001615a1f565b60d3805460018082019092557f915c3eb987b20e1af620c1403197bf687fb7f18513b3a73fde6e78c7072c41a60180546001600160a01b0319166001600160a01b038516908117909155600090815260d460205260408120805460ff191690921790915560ce54905b81811015611c4a57836001600160a01b0316632a869a4d60ce8381548110611bd457611bd4615950565b60009182526020909120015460405160e083901b6001600160e01b03191681526001600160a01b039091166004820152602401600060405180830381600087803b158015611c2157600080fd5b505af1158015611c35573d6000803e3d6000fd5b5050505080611c439061597c565b9050611baa565b50826001600160a01b031663f7c618c16040518163ffffffff1660e01b8152600401602060405180830381865afa158015611c89573d6000803e3d6000fd5b505050506040513d601f19601f82011682018060405250810190611cad9190615995565b6001600160a01b0316836001600160a01b03167f066a44d77db1581603d7d8ca1ca494756c0d359c7ffacd9b2c8f78dab7aceae260405160405180910390a3505050565b611cfc8460036143fe565b60c9546040516360ed5f2d60e01b81526001600160a01b03909116906360ed5f2d90611d3090879086908690600401615a60565b600060405180830381600087803b158015611d4a57600080fd5b505af1158015611d5e573d6000803e3d6000fd5b505050506001600160a01b038416600090815260cd602052604090205460ff16611da657604051635a9a1eb960e11b81526001600160a01b0385166004820152602401610aa0565b60d35460005b8181101561197e5760006040518060200160405280886001600160a01b031663aa5af0fd6040518163ffffffff1660e01b8152600401602060405180830381865afa158015611dff573d6000803e3d6000fd5b505050506040513d601f19601f82011682018060405250810190611e239190615a06565b8152509050600060d38381548110611e3d57611e3d615950565b600091825260209091200154604051632352607960e01b81526001600160a01b038a811660048301528451602483015290911691508190632352607990604401600060405180830381600087803b158015611e9757600080fd5b505af1158015611eab573d6000803e3d6000fd5b5050604051636a95ddef60e01b81526001600160a01b038b811660048301528a811660248301528551604483015284169250636a95ddef9150606401600060405180830381600087803b158015611f0157600080fd5b505af1158015611f15573d6000803e3d6000fd5b50505050505080611f259061597c565b9050611dac565b60d6546001600160a01b031615611f9d5760d6546040516367994e8b60e11b81526001600160a01b039091169063cf329d1690611f6f90859087906004016159b2565b600060405180830381600087803b158015611f8957600080fd5b505af1158015610ccd573d6000803e3d6000fd5b505050565b611fc36040518060600160405280602c8152602001615e51602c913961432d565b6001600160a01b038316600090815260cd60205260409020805460ff1661200857604051635a9a1eb960e11b81526001600160a01b0385166004820152602401610aa0565b670c7d713b49da0000831115612031576040516302f22cad60e61b815260040160405180910390fd5b670de0b6b3a76400008211156120595760405162f9474b60e61b815260040160405180910390fd5b828210156120795760405162f9474b60e61b815260040160405180910390fd5b82158015906120f3575060c95460405163fc57d4df60e01b81526001600160a01b0386811660048301529091169063fc57d4df90602401602060405180830381865afa1580156120cd573d6000803e3d6000fd5b505050506040513d601f19601f820116820180604052508101906120f19190615a06565b155b1561211b5760405162e52a7d60e41b81526001600160a01b0385166004820152602401610aa0565b60018101548381146121795760018201849055604080516001600160a01b0387168152602081018390529081018590527f70483e6592cd5182d45ac970e05bc62cdcc90e9d8ef2c2dbe686cf383bcd7fc59060600160405180910390a15b600282015483811461197e5760028301849055604080516001600160a01b0388168152602081018390529081018590527f9e92c7d5fef69846094f3ddcadcb9402c6ba469c461368714f1cabd8ef48b5919060600160405180910390a1505050505050565b600080600080611a278561453861456c565b606060d380548060200260200160405190810160405280929190818152602001828054801561224857602002820191906000526020600020905b81546001600160a01b0316815260019091019060200180831161222a575b5050505050905090565b60d6546001600160a01b0316156114725760d6546040516367994e8b60e11b81526001600160a01b039091169063cf329d169061229590869088906004016159b2565b600060405180830381600087803b1580156122af57600080fd5b505af11580156122c3573d6000803e3d6000fd5b505060d6546040516367994e8b60e11b81526001600160a01b03909116925063cf329d16915061144490859088906004016159b2565b6123048460066143fe565b60d35460005b8181101561197e57600060d3828154811061232757612327615950565b60009182526020909120015460405163051d1d4f60e11b81526001600160a01b03898116600483015290911691508190630a3a3a9e90602401600060405180830381600087803b15801561237a57600080fd5b505af115801561238e573d6000803e3d6000fd5b505060405163db7954fd60e01b81526001600160a01b038416925063db7954fd91506123c0908a908a906004016159b2565b600060405180830381600087803b1580156123da57600080fd5b505af11580156123ee573d6000803e3d6000fd5b505060405163db7954fd60e01b81526001600160a01b038416925063db7954fd9150612420908a9089906004016159b2565b600060405180830381600087803b15801561243a57600080fd5b505af115801561244e573d6000803e3d6000fd5b50505050508061245d9061597c565b905061230a565b60d6546001600160a01b03161561111b5760d6546040516367994e8b60e11b81526001600160a01b039091169063cf329d16906124a790859089906004016159b2565b600060405180830381600087803b1580156124c157600080fd5b505af11580156124d5573d6000803e3d6000fd5b505060d6546040516367994e8b60e11b81526001600160a01b03909116925063cf329d1691506110e890869089906004016159b2565b61251361421c565b61251d600061498d565b565b60655433906001600160a01b0316811461258d5760405162461bcd60e51b815260206004820152602960248201527f4f776e61626c6532537465703a2063616c6c6572206973206e6f7420746865206044820152683732bb9037bbb732b960b91b6064820152608401610aa0565b6109f48161498d565b6125a18560016143fe565b6125ae85858585856149a6565b60d35460005b81811015610ccd57600060d382815481106125d1576125d1615950565b60009182526020909120015460405163051d1d4f60e11b81526001600160a01b038a8116600483015290911691508190630a3a3a9e90602401600060405180830381600087803b15801561262457600080fd5b505af1158015612638573d6000803e3d6000fd5b505060405163db7954fd60e01b81526001600160a01b038416925063db7954fd915061266a908b908b906004016159b2565b600060405180830381600087803b15801561268457600080fd5b505af1158015612698573d6000803e3d6000fd5b5050505050806126a79061597c565b90506125b4565b6126b661421c565b6109f481614a56565b6126e0604051806060016040528060228152602001615ea76022913961432d565b6126e982614966565b6001600160a01b038216600090815260cd602052604090205460ff1661272d57604051635a9a1eb960e11b81526001600160a01b0383166004820152602401610aa0565b6001600160a01b038216600081815260d56020908152604091829020805460ff191685151590811790915591519182527f03561d5280ebb02280893b1d60978e4a27e7654a149c5d0e7c2cf65389ce1694910160405180910390a25050565b6001600160a01b038116600090815260cc60209081526040808320805482518185028101850190935280835291929091908301828280156127f657602002820191906000526020600020905b81546001600160a01b031681526001909101906020018083116127d8575b5050835160c954949550936001600160a01b0316925060009150505b828110156128a85783818151811061282c5761282c615950565b60200260200101516001600160a01b031663a6afed956040518163ffffffff1660e01b81526004016020604051808303816000875af1158015612873573d6000803e3d6000fd5b505050506040513d601f19601f820116820180604052508101906128979190615a06565b506128a18161597c565b9050612812565b505060006128b88461453861456c565b905060d054816000015111156128ef5760d0548151604051631a451c0f60e21b815260048101929092526024820152604401610aa0565b8060a001516000036129145760405163095bf33360e01b815260040160405180910390fd5b60408051602080820183528351825282518082018452848401518152835191820190935260cb548152909160009161294c9190614af2565b9050600061295a8383614b3a565b905061297e6040518060200160405280670de0b6b3a7640000815250825190511090565b156129a95781518351604051631a451c0f60e21b815260048101929092526024820152604401610aa0565b60005b858110156111e55760008782815181106129c8576129c8615950565b602002602001015190506000806129df838c614b74565b509150915060006129f086836145b4565b90508215612a615760405163b2a02ff160e01b81523360048201526001600160a01b038d811660248301526044820185905285169063b2a02ff190606401600060405180830381600087803b158015612a4857600080fd5b505af1158015612a5c573d6000803e3d6000fd5b505050505b8115612afb576040805160008082526020820190925281612a92565b6060815260200190600190039081612a7d5790505b509050846001600160a01b031663835943a7338f85856040518563ffffffff1660e01b8152600401612ac79493929190615ba2565b600060405180830381600087803b158015612ae157600080fd5b505af1158015612af5573d6000803e3d6000fd5b50505050505b5050505080612b099061597c565b90506129ac565b670de0b6b3a7640000811015612b825760405162461bcd60e51b815260206004820152603160248201527f6c69717569646174696f6e20696e63656e746976652073686f756c64206265206044820152700cee4cac2e8cae440e8d0c2dc4062ca627607b1b6064820152608401610aa0565b612bc06040518060400160405280602081526020017f7365744c69717569646174696f6e496e63656e746976652875696e743235362981525061432d565b60cb80549082905560408051828152602081018490527faeba5a6c40a8ac138134bff1aaa65debf25971188a58804bad717f82f0ec13169101610b51565b6001600160a01b038116600090815260cc60209081526040808320805482518185028101850190935280835260609493830182828015612c6757602002820191906000526020600020905b81546001600160a01b03168152600190910190602001808311612c49575b5093979650505050505050565b606060ce805480602002602001604051908101604052809291908181526020018280548015612248576020028201919060005260206000209081546001600160a01b0316815260019091019060200180831161222a575050505050905090565b60d354606090806001600160401b03811115612cf257612cf26155e8565b604051908082528060200260200182016040528015612d5057816020015b612d3d604051806060016040528060006001600160a01b0316815260200160008152602001600081525090565b815260200190600190039081612d105790505b50915060005b81811015612f0f57600060d38281548110612d7357612d73615950565b60009182526020808320909101546040805163f7c618c160e01b815290516001600160a01b039092169450849263f7c618c1926004808401938290030181865afa158015612dc5573d6000803e3d6000fd5b505050506040513d601f19601f82011682018060405250810190612de99190615995565b604080516060810182526001600160a01b0380841682529151631d31307360e21b815289831660048201529293509160208301918516906374c4c1cc90602401602060405180830381865afa158015612e46573d6000803e3d6000fd5b505050506040513d601f19601f82011682018060405250810190612e6a9190615a06565b8152604051637c05a7c560e01b81526001600160a01b038981166004830152602090920191851690637c05a7c590602401602060405180830381865afa158015612eb8573d6000803e3d6000fd5b505050506040513d601f19601f82011682018060405250810190612edc9190615a06565b815250858481518110612ef157612ef1615950565b6020026020010181905250505080612f089061597c565b9050612d56565b5050919050565b6000612f238460086143fe565b83600080612f318333614b74565b509150915080600014612f575760405163f8a5d66d60e01b815260040160405180910390fd5b612f6487338489896149a6565b6001600160a01b038316600090815260cd60209081526040808320338452600381019092529091205460ff16612fa1576000945050505050613188565b3360009081526003820160209081526040808320805460ff1916905560cc82528083208054825181850281018501909352808352919290919083018282801561301357602002820191906000526020600020905b81546001600160a01b03168152600190910190602001808311612ff5575b5050835193945083925060009150505b8281101561307557876001600160a01b031684828151811061304757613047615950565b60200260200101516001600160a01b03160361306557809150613075565b61306e8161597c565b9050613023565b5081811061308557613085615bdf565b33600090815260cc60205260409020805481906130a490600190615bf5565b815481106130b4576130b4615950565b9060005260206000200160009054906101000a90046001600160a01b03168183815481106130e4576130e4615950565b9060005260206000200160006101000a8154816001600160a01b0302191690836001600160a01b031602179055508080548061312257613122615c0c565b600082815260208120820160001990810180546001600160a01b031916905590910190915560405133916001600160a01b038b16917fe699a64c18b07ac5b7301aa273f36a2287239eb9501d81950672794afba29a0d9190a36000985050505050505050505b9392505050565b600061319d8561453861456c565b905060d054816000015111156131d45760d0548151604051631a451c0f60e21b815260048101929092526024820152604401610aa0565b60006131f4604051806020016040528060cb5481525083604001516145b4565b82519091508110613225578151604051632c1f8ef160e21b8152610aa0918391600401918252602082015260400190565b8160a0015160000361324a5760405163095bf33360e01b815260040160405180910390fd5b83613259611152600283615c22565b60005b8181101561342f5760cd600088888481811061327a5761327a615950565b90506060020160200160208101906132929190614f0a565b6001600160a01b0316815260208101919091526040016000205460ff16613302578686828181106132c5576132c5615950565b90506060020160200160208101906132dd9190614f0a565b604051635a9a1eb960e11b81526001600160a01b039091166004820152602401610aa0565b60cd600088888481811061331857613318615950565b61332e9260206060909202019081019150614f0a565b6001600160a01b0316815260208101919091526040016000205460ff166133775786868281811061336157613361615950565b6132dd9260206060909202019081019150614f0a565b3687878381811061338a5761338a615950565b90506060020190508060200160208101906133a59190614f0a565b6001600160a01b0316639e59e1f5338b60408501356133c76020870187614f0a565b60018c6040518763ffffffff1660e01b81526004016133eb96959493929190615c44565b600060405180830381600087803b15801561340557600080fd5b505af1158015613419573d6000803e3d6000fd5b5050505050806134289061597c565b905061325c565b506001600160a01b038716600090815260cc602090815260408083208054825181850281018501909352808352919290919083018282801561349a57602002820191906000526020600020905b81546001600160a01b0316815260019091019060200180831161347c575b505083519394506000925050505b818110156113f55760006134d58483815181106134c7576134c7615950565b60200260200101518c614b74565b5091505080156135385760405162461bcd60e51b815260206004820152602860248201527f4e6f6e7a65726f20626f72726f772062616c616e6365206166746572206c69716044820152673ab4b230ba34b7b760c11b6064820152608401610aa0565b506135428161597c565b90506134a8565b6135548360006143fe565b6001600160a01b038316600090815260cd602052604090205460ff1661359857604051635a9a1eb960e11b81526001600160a01b0384166004820152602401610aa0565b6001600160a01b038316600090815260d1602052604090205460001981146136d9576000846001600160a01b03166318160ddd6040518163ffffffff1660e01b8152600401602060405180830381865afa1580156135fa573d6000803e3d6000fd5b505050506040513d601f19601f8201168201806040525081019061361e9190615a06565b905060006040518060200160405280876001600160a01b031663182df0f56040518163ffffffff1660e01b8152600401602060405180830381865afa15801561366b573d6000803e3d6000fd5b505050506040513d601f19601f8201168201806040525081019061368f9190615a06565b9052905060006136a0828487614c1b565b9050838111156136d55760405163db33be3d60e01b81526001600160a01b038816600482015260248101859052604401610aa0565b5050505b60d35460005b8181101561197e57600060d382815481106136fc576136fc615950565b60009182526020909120015460405163051d1d4f60e11b81526001600160a01b03898116600483015290911691508190630a3a3a9e90602401600060405180830381600087803b15801561374f57600080fd5b505af1158015613763573d6000803e3d6000fd5b505060405163db7954fd60e01b81526001600160a01b038416925063db7954fd9150613795908a908a906004016159b2565b600060405180830381600087803b1580156137af57600080fd5b505af11580156137c3573d6000803e3d6000fd5b5050505050806137d29061597c565b90506136df565b80516060906000816001600160401b038111156137f8576137f86155e8565b604051908082528060200260200182016040528015613821578160200160208202803683370190505b50905060005b8281101561388757600085828151811061384357613843615950565b602002602001015190506138578133614601565b600083838151811061386b5761386b615950565b6020908102919091010152506138808161597c565b9050613827565b509392505050565b61389761421c565b6138a081614966565b60d6546040517fcb20dab7409e4fb972d9adccb39530520b226ce6940d85c9523a499b950b6ea3916138df916001600160a01b039091169084906159b2565b60405180910390a160d680546001600160a01b0319166001600160a01b0392909216919091179055565b600080600061391786614c45565b9050600061392486614c45565b90506000866001600160a01b031663182df0f56040518163ffffffff1660e01b8152600401602060405180830381865afa158015613966573d6000803e3d6000fd5b505050506040513d601f19601f8201168201806040525081019061398a9190615a06565b905060006139a46040518060200160405280600081525090565b60408051602080820183526000808352835180830185529081528351808301855260cb548152845192830190945288825291926139e091614af2565b9250613a08604051806020016040528088815250604051806020016040528088815250614af2565b9150613a148383614b3a565b9050613a20818b6145b4565b60009d909c509a5050505050505050505050565b613a5d7f00000000000000000000000000000000000000000000000000000000000000006145d4565b6001600160a01b038116600090815260cd602052604090205460ff1615613aa25760405163d005ce4760e01b81526001600160a01b0382166004820152602401610aa0565b806001600160a01b031663997438c66040518163ffffffff1660e01b8152600401602060405180830381865afa158015613ae0573d6000803e3d6000fd5b505050506040513d601f19601f82011682018060405250810190613b049190615c93565b613b505760405162461bcd60e51b815260206004820152601c60248201527f436f6d7074726f6c6c65723a20496e76616c6964206c65546f6b656e000000006044820152606401610aa0565b6001600160a01b038116600090815260cd60205260408120805460ff19166001908117825581018290556002810191909155613b8b82614cea565b60d35460005b81811015613c255760d38181548110613bac57613bac615950565b600091825260209091200154604051632a869a4d60e01b81526001600160a01b03868116600483015290911690632a869a4d90602401600060405180830381600087803b158015613bfc57600080fd5b505af1158015613c10573d6000803e3d6000fd5b5050505080613c1e9061597c565b9050613b91565b506040516001600160a01b03841681527faf16ad15f9e29d5140e8e81a30a92a755aa8edff3d301053c84392b70c0d09a3906020015b60405180910390a1505050565b613c89604051806060016040528060288152602001615ec96028913961432d565b826000819003613cd75760405162461bcd60e51b8152602060048201526019602482015278696e76616c6964206e756d626572206f66206d61726b65747360381b6044820152606401610aa0565b808214613d225760405162461bcd60e51b8152602060048201526019602482015278696e76616c6964206e756d626572206f66206d61726b65747360381b6044820152606401610aa0565b613d2b816143cb565b60005b8181101561197e57838382818110613d4857613d48615950565b9050602002013560d16000888885818110613d6557613d65615950565b9050602002016020810190613d7a9190614f0a565b6001600160a01b03168152602081019190915260400160002055858582818110613da657613da6615950565b9050602002016020810190613dbb9190614f0a565b6001600160a01b03167f9e0ad9cee10bdf36b7fbd38910c0bdff0f275ace679b45b922381c2723d676f8858584818110613df757613df7615950565b90506020020135604051613e0d91815260200190565b60405180910390a2613e1e8161597c565b9050613d2e565b600054610100900460ff1615808015613e455750600054600160ff909116105b80613e5f5750303b158015613e5f575060005460ff166001145b613ec25760405162461bcd60e51b815260206004820152602e60248201527f496e697469616c697a61626c653a20636f6e747261637420697320616c72656160448201526d191e481a5b9a5d1a585b1a5e995960921b6064820152608401610aa0565b6000805460ff191660011790558015613ee5576000805461ff0019166101001790555b613eed614db9565b613ef682614de8565b613eff83614a56565b8015611f9d576000805461ff0019169055604051600181527f7f26b83ff96e1f2b6a682f133852f6798a09c465da95921460cefb384740249890602001613c5b565b60cc6020528160005260406000208181548110613f5d57600080fd5b6000918252602090912001546001600160a01b03169150829050565b613f8282614966565b33600090815260d7602090815260408083206001600160a01b038616845290915290205481151560ff909116151503613fce5760405163db6c2c8360e01b815260040160405180910390fd5b33600081815260d7602090815260408083206001600160a01b03871680855290835292819020805460ff191686151590811790915590519081529192917fcb325b7784f78486e42849c7a50b8c5ee008d00cd90e108a58912c0fcb6288b4910160405180910390a35050565b6001600160a01b038316600090815260cc60209081526040808320805482518185028101850190935280835291929091908301828280156140a457602002820191906000526020600020905b81546001600160a01b03168152600190910190602001808311614086575b5050835160c954949550936001600160a01b0316925060009150505b82811015610ccd57816001600160a01b03166360ed5f2d8583815181106140e9576140e9615950565b602002602001015188886040518463ffffffff1660e01b815260040161411193929190615a60565b600060405180830381600087803b15801561412b57600080fd5b505af115801561413f573d6000803e3d6000fd5b505050508061414d9061597c565b90506140c0565b6001600160a01b038216600090815260d2602052604081208183600881111561417f5761417f615cb0565b600881111561419057614190615cb0565b815260208101919091526040016000205460ff169392505050565b6141b361421c565b606580546001600160a01b0383166001600160a01b031990911681179091556141e46033546001600160a01b031690565b6001600160a01b03167f38d16b8cac22d99fc7c124b9cd0de2d3fa1faef420bfe791d8c362d765e2270060405160405180910390a350565b6033546001600160a01b0316331461251d5760405162461bcd60e51b815260206004820181905260248201527f4f776e61626c653a2063616c6c6572206973206e6f7420746865206f776e65726044820152606401610aa0565b6001600160a01b0381166142da5760405162461bcd60e51b815260206004820152602560248201527f696e76616c696420616365737320636f6e74726f6c206d616e61676572206164604482015264647265737360d81b6064820152608401610aa0565b609780546001600160a01b038381166001600160a01b03198316179092556040519116907f66fd58e82f7b31a2a5c30e0888f3093efe4e111b00cd2b0c31fe014601293aa090610b5190839085906159b2565b6097546040516318c5e8ab60e01b81526000916001600160a01b0316906318c5e8ab906143609033908690600401615cc6565b602060405180830381865afa15801561437d573d6000803e3d6000fd5b505050506040513d601f19601f820116820180604052508101906143a19190615c93565b9050806143c757333083604051634a3fa29360e01b8152600401610aa093929190615cea565b5050565b610107548111156109f4576101075460405163792bfb1b60e11b8152600481019190915260248101829052604401610aa0565b6144088282614154565b156143c75781816040516313b3ccb160e31b8152600401610aa0929190615d38565b6001600160a01b038316600090815260cd602052604090205460ff166144a35760405162461bcd60e51b815260206004820152602860248201527f63616e6e6f742070617573652061206d61726b65742074686174206973206e6f6044820152671d081b1a5cdd195960c21b6064820152608401610aa0565b6001600160a01b038316600090815260d26020526040812082918460088111156144cf576144cf615cb0565b60088111156144e0576144e0615cb0565b815260200190815260200160002060006101000a81548160ff0219169083151502179055507f35007a986bcd36d2f73fc7f1b73762e12eadb4406dd163194950fd3b5a6a827d838383604051613c5b93929190615d55565b6040805160208082018352600091829052825180820184526001600160a01b0394909416825260cd90522060020154815290565b6145a56040518060c001604052806000815260200160008152602001600081526020016000815260200160008152602001600081525090565b61318883600080600086614731565b6000806145c18484614e0f565b90506145cc81614e37565b949350505050565b336001600160a01b038216146109f4578033604051634e9383fb60e11b8152600401610aa09291906159b2565b61460c8260076143fe565b6001600160a01b038216600090815260cd60205260409020805460ff1661465157604051635a9a1eb960e11b81526001600160a01b0384166004820152602401610aa0565b6001600160a01b038216600090815260038201602052604090205460ff161561467957505050565b6001600160a01b0380831660008181526003840160209081526040808320805460ff1916600190811790915560cc835281842080549182018155845291832090910180549488166001600160a01b031990951685179055519192917f3ab23ab0d51cccc0c3085aec51f99228625aa1a922b3a8ca89a26b0f2027a1a59190a3505050565b6040805160208082018352600091829052825180820184526001600160a01b0394909416825260cd90522060010154815290565b61476a6040518060c001604052806000815260200160008152602001600081526020016000815260200160008152602001600081525090565b6001600160a01b038616600090815260cc60209081526040808320805482518185028101850190935280835291929091908301828280156147d457602002820191906000526020600020905b81546001600160a01b031681526001909101906020018083116147b6575b505083519394506000925050505b818110156149085760008382815181106147fe576147fe615950565b602002602001015190506000806000614817848e614b74565b9250925092506000604051806020016040528061483387614c45565b8152509050600061485260405180602001604052808581525083614af2565b9050600061486c614866888e63ffffffff16565b83614af2565b905061487d81878d60200151614c1b565b60208c01528a516148919083908890614c1b565b8b5260408b01516148a59084908790614c1b565b8b60400181815250508e6001600160a01b0316876001600160a01b0316036148f0576148d6818f8d60600151614c1b565b60608c018190526148ea9084908f90614c1b565b60608c01525b50505050505050806149019061597c565b90506147e2565b5060008360600151846040015161491f9190615a1f565b905080846020015111156149465760208401518190036080850152600060a085015261495a565b600060808501526020840151810360a08501525b50505095945050505050565b6001600160a01b0381166109f4576040516342bcdf7f60e11b815260040160405180910390fd5b606580546001600160a01b03191690556109f481614e4f565b6001600160a01b038516600090815260cd60205260409020805460ff166149eb57604051635a9a1eb960e11b81526001600160a01b0387166004820152602401610aa0565b6001600160a01b038516600090815260038201602052604090205460ff16614a13575061111b565b614a1e85848461403a565b6000614a3086888760006146fd614731565b60a081015190915015610ccd5760405163bb55fd2760e01b815260040160405180910390fd5b610107548111614ab35760405162461bcd60e51b815260206004820152602260248201527f436f6d7074726f6c6c65723a20496e76616c6964206d61784c6f6f70734c696d6044820152611a5d60f21b6064820152608401610aa0565b61010780549082905560408051828152602081018490527fc2d09fef144f7c8a86f71ea459f8fc17f675768eb1ae369cbd77fb31d467aafa9101610b51565b6040805160208101909152600081526040518060200160405280670de0b6b3a7640000614b2786600001518660000151614ea1565b614b319190615c22565b90529392505050565b6040805160208101909152600081526040518060200160405280614b31614b6d8660000151670de0b6b3a7640000614ea1565b8551614ead565b6040516361bfb47160e11b81526001600160a01b03828116600483015260009182918291829187169063c37f68e290602401608060405180830381865afa158015614bc3573d6000803e3d6000fd5b505050506040513d601f19601f82011682018060405250810190614be79190615d82565b9196509450925090508015614c1357858560405163015e34d960e61b8152600401610aa09291906159b2565b509250925092565b600080614c288585614e0f565b9050614c3c614c3682614e37565b84614eb9565b95945050505050565b60c95460405163fc57d4df60e01b81526001600160a01b038381166004830152600092839291169063fc57d4df90602401602060405180830381865afa158015614c93573d6000803e3d6000fd5b505050506040513d601f19601f82011682018060405250810190614cb79190615a06565b905080600003614ce45760405162e52a7d60e41b81526001600160a01b0384166004820152602401610aa0565b92915050565b60ce5460005b81811015614d6357826001600160a01b031660ce8281548110614d1557614d15615950565b6000918252602090912001546001600160a01b031603614d535760405163d005ce4760e01b81526001600160a01b0384166004820152602401610aa0565b614d5c8161597c565b9050614cf0565b505060ce805460018101825560008290527fd36cd1c74ef8d7326d8021b776c18fb5a5724b7f7bc93c2f42e43e10ef27d12a0180546001600160a01b0319166001600160a01b038416179055546143c7816143cb565b600054610100900460ff16614de05760405162461bcd60e51b8152600401610aa090615db8565b61251d614ec5565b600054610100900460ff166109eb5760405162461bcd60e51b8152600401610aa090615db8565b6040805160208101909152600081526040518060200160405280614b31856000015185614ea1565b8051600090614ce490670de0b6b3a764000090615c22565b603380546001600160a01b038381166001600160a01b0319831681179093556040519116919082907f8be0079c531659141344cd1fd0a4f28419497f9722a3daafe3b4186f6b6457e090600090a35050565b600061318882846159cc565b60006131888284615c22565b60006131888284615a1f565b600054610100900460ff16614eec5760405162461bcd60e51b8152600401610aa090615db8565b61251d3361498d565b6001600160a01b03811681146109f457600080fd5b600060208284031215614f1c57600080fd5b813561318881614ef5565b60008060408385031215614f3a57600080fd5b8235614f4581614ef5565b91506020830135614f5581614ef5565b809150509250929050565b600060208284031215614f7257600080fd5b5035919050565b60008083601f840112614f8b57600080fd5b5081356001600160401b03811115614fa257600080fd5b6020830191508360208260051b8501011115614fbd57600080fd5b9250929050565b60008060008060408587031215614fda57600080fd5b84356001600160401b0380821115614ff157600080fd5b614ffd88838901614f79565b9096509450602087013591508082111561501657600080fd5b5061502387828801614f79565b95989497509550505050565b6000806000806080858703121561504557600080fd5b843561505081614ef5565b9350602085013561506081614ef5565b9250604085013561507081614ef5565b9150606085013561508081614ef5565b939692955090935050565b600080600080600060a086880312156150a357600080fd5b85356150ae81614ef5565b945060208601356150be81614ef5565b935060408601356150ce81614ef5565b94979396509394606081013594506080013592915050565b80151581146109f457600080fd5b60008060008060006060868803121561510c57600080fd5b85356001600160401b038082111561512357600080fd5b61512f89838a01614f79565b9097509550602088013591508082111561514857600080fd5b5061515588828901614f79565b9094509250506040860135615169816150e6565b809150509295509295909350565b600080600080600080600060c0888a03121561519257600080fd5b873561519d81614ef5565b965060208801356151ad81614ef5565b955060408801356151bd81614ef5565b94506060880135935060808801356151d4816150e6565b925060a08801356001600160401b038111156151ef57600080fd5b6151fb8a828b01614f79565b989b979a50959850939692959293505050565b6000806000806080858703121561522457600080fd5b843561522f81614ef5565b9350602085013561523f81614ef5565b93969395505050506040820135916060013590565b60008060008060006080868803121561526c57600080fd5b853561527781614ef5565b9450602086013561528781614ef5565b93506040860135925060608601356001600160401b038111156152a957600080fd5b6152b588828901614f79565b969995985093965092949392505050565b60008060008060008060c087890312156152df57600080fd5b86356152ea81614ef5565b955060208701356152fa81614ef5565b9450604087013561530a81614ef5565b9350606087013561531a81614ef5565b9598949750929560808101359460a0909101359350915050565b6000806000806060858703121561534a57600080fd5b843561535581614ef5565b9350602085013561536581614ef5565b925060408501356001600160401b0381111561538057600080fd5b61502387828801614f79565b6000806000606084860312156153a157600080fd5b83356153ac81614ef5565b925060208401356153bc81614ef5565b929592945050506040919091013590565b6000806000606084860312156153e257600080fd5b83356153ed81614ef5565b95602085013595506040909401359392505050565b6020808252825182820181905260009190848201906040850190845b818110156154435783516001600160a01b03168352928401929184019160010161541e565b50909695505050505050565b6000806000806080858703121561546557600080fd5b843561547081614ef5565b9350602085013561548081614ef5565b9250604085013561549081614ef5565b9396929550929360600135925050565b600080600080600060a086880312156154b857600080fd5b85356154c381614ef5565b945060208601356154d381614ef5565b935060408601356154e381614ef5565b925060608601356154f381614ef5565b949793965091946080013592915050565b6000806040838503121561551757600080fd5b823561552281614ef5565b91506020830135614f55816150e6565b602080825282518282018190526000919060409081850190868401855b8281101561558757815180516001600160a01b031685528681015187860152850151858501526060909301929085019060010161554f565b5091979650505050505050565b6000806000604084860312156155a957600080fd5b83356155b481614ef5565b925060208401356001600160401b038111156155cf57600080fd5b6155db86828701614f79565b9497909650939450505050565b634e487b7160e01b600052604160045260246000fd5b604051601f8201601f191681016001600160401b0381118282101715615626576156266155e8565b604052919050565b60006001600160401b03821115615647576156476155e8565b5060051b60200190565b6000601f838184011261566357600080fd5b823560206156786156738361562e565b6155fe565b82815260059290921b8501810191818101908784111561569757600080fd5b8287015b8481101561572d5780356001600160401b03808211156156bb5760008081fd5b818a0191508a603f8301126156d05760008081fd5b858201356040828211156156e6576156e66155e8565b6156f7828b01601f191689016155fe565b92508183528c8183860101111561570e5760008081fd5b818185018985013750600090820187015284525091830191830161569b565b50979650505050505050565b6000806000806060858703121561574f57600080fd5b843561575a81614ef5565b935060208501356001600160401b038082111561577657600080fd5b818701915087601f83011261578a57600080fd5b81358181111561579957600080fd5b8860206060830285010111156157ae57600080fd5b6020830195508094505060408701359150808211156157cc57600080fd5b506157d987828801615651565b91505092959194509250565b600060208083850312156157f857600080fd5b82356001600160401b0381111561580e57600080fd5b8301601f8101851361581f57600080fd5b803561582d6156738261562e565b81815260059190911b8201830190838101908783111561584c57600080fd5b928401925b8284101561587357833561586481614ef5565b82529284019290840190615851565b979650505050505050565b6020808252825182820181905260009190848201906040850190845b818110156154435783518352928401929184019160010161589a565b600080604083850312156158c957600080fd5b823591506020830135614f5581614ef5565b600080604083850312156158ee57600080fd5b82356158f981614ef5565b946020939093013593505050565b80356009811061591657600080fd5b919050565b6000806040838503121561592e57600080fd5b823561593981614ef5565b915061594760208401615907565b90509250929050565b634e487b7160e01b600052603260045260246000fd5b634e487b7160e01b600052601160045260246000fd5b60006001820161598e5761598e615966565b5060010190565b6000602082840312156159a757600080fd5b815161318881614ef5565b6001600160a01b0392831681529116602082015260400190565b60008160001904831182151516156159e6576159e6615966565b500290565b6000602082840312156159fd57600080fd5b61318882615907565b600060208284031215615a1857600080fd5b5051919050565b60008219821115615a3257615a32615966565b500190565b81835281816020850137506000828201602090810191909152601f909101601f19169091010190565b6001600160a01b0384168152604060208083018290529082018390526000906060600585901b840181019190840186845b87811015615aff57868503605f190183528135368a9003601e19018112615ab757600080fd5b890180356001600160401b03811115615acf57600080fd5b8036038b1315615ade57600080fd5b615aeb8782888501615a37565b965050509183019190830190600101615a91565b509298975050505050505050565b6000815180845260005b81811015615b3357602081850181015186830182015201615b17565b81811115615b45576000602083870101525b50601f01601f19169290920160200192915050565b600081518084526020808501808196508360051b8101915082860160005b85811015615587578284038952615b90848351615b0d565b98850198935090840190600101615b78565b6001600160a01b0385811682528416602082015260408101839052608060608201819052600090615bd590830184615b5a565b9695505050505050565b634e487b7160e01b600052600160045260246000fd5b600082821015615c0757615c07615966565b500390565b634e487b7160e01b600052603160045260246000fd5b600082615c3f57634e487b7160e01b600052601260045260246000fd5b500490565b6001600160a01b03878116825286811660208301526040820186905284166060820152821515608082015260c060a08201819052600090615c8790830184615b5a565b98975050505050505050565b600060208284031215615ca557600080fd5b8151613188816150e6565b634e487b7160e01b600052602160045260246000fd5b6001600160a01b03831681526040602082018190526000906145cc90830184615b0d565b6001600160a01b03848116825283166020820152606060408201819052600090614c3c90830184615b0d565b60098110615d3457634e487b7160e01b600052602160045260246000fd5b9052565b6001600160a01b0383168152604081016131886020830184615d16565b6001600160a01b038416815260608101615d726020830185615d16565b8215156040830152949350505050565b60008060008060808587031215615d9857600080fd5b505082516020840151604085015160609095015191969095509092509050565b6020808252602b908201527f496e697469616c697a61626c653a20636f6e7472616374206973206e6f74206960408201526a6e697469616c697a696e6760a81b60608201526080019056fe7365744d61726b6574426f72726f774361707328616464726573735b5d2c75696e743235365b5d297365744d696e4c6971756964617461626c65436f6c6c61746572616c2875696e7432353629736574436f6c6c61746572616c466163746f7228616464726573732c75696e743235362c75696e7432353629736574416374696f6e7350617573656428616464726573735b5d2c75696e743235365b5d2c626f6f6c29736574466f726365644c69717569646174696f6e28616464726573732c626f6f6c297365744d61726b6574537570706c794361707328616464726573735b5d2c75696e743235365b5d29a264697066735822122027bef68e6f1a738ba1344ae8d9ed6ee3581d5a7d7f308898df010281cc4f286c64736f6c634300080d0033",
  "devdoc": {
    "author": "LendLand",
    "kind": "dev",
    "methods": {
      "acceptOwnership()": {
        "details": "The new owner accepts the ownership transfer."
      },
      "actionPaused(address,uint8)": {
        "params": {
          "action": "Action to check",
          "market": "leToken address"
        },
        "returns": {
          "_0": "paused True if the action is paused otherwise false"
        }
      },
      "addRewardsDistributor(address)": {
        "custom:access": "Only Governance",
        "custom:event": "Emits NewRewardsDistributor with distributor address",
        "details": "Only callable by the admin",
        "params": {
          "_rewardsDistributor": "Address of the RewardDistributor contract to add"
        }
      },
      "borrowVerify(address,address,uint256)": {
        "params": {
          "borrowAmount": "The amount of the underlying asset requested to borrow",
          "borrower": "The address borrowing the underlying",
          "leToken": "Asset whose underlying is being borrowed"
        }
      },
      "checkMembership(address,address)": {
        "params": {
          "account": "The address of the account to check",
          "leToken": "The leToken to check"
        },
        "returns": {
          "_0": "True if the account is in the market specified, otherwise false."
        }
      },
      "constructor": {
        "custom:error": "ZeroAddressNotAllowed is thrown when pool registry address is zero",
        "custom:oz-upgrades-unsafe-allow": "constructor",
        "params": {
          "poolRegistry_": "Pool registry address"
        }
      },
      "enterMarkets(address[])": {
        "custom:access": "Not restricted",
        "custom:error": "ActionPaused error is thrown if entering any of the markets is pausedMarketNotListed error is thrown if any of the markets is not listed",
        "custom:event": "MarketEntered is emitted for each market on success",
        "params": {
          "leTokens": "The list of addresses of the leToken markets to be enabled"
        },
        "returns": {
          "_0": "errors An array of NO_ERROR for compatibility with LendLand core tooling"
        }
      },
      "exitMarket(address,bytes[])": {
        "custom:access": "Not restricted",
        "custom:error": "ActionPaused error is thrown if exiting the market is pausedNonzeroBorrowBalance error is thrown if the user has an outstanding borrow in this marketMarketNotListed error is thrown when the market is not listedInsufficientLiquidity error is thrown if exiting the market would lead to user's insolvencySnapshotError is thrown if some leToken fails to return the account's supply and borrowsPriceError is thrown if the oracle returns an incorrect price for some asset",
        "custom:event": "MarketExited is emitted on success",
        "details": "Sender must not have an outstanding borrow balance in the asset,  or be providing necessary collateral for an outstanding borrow.",
        "params": {
          "leTokenAddress": "The address of the asset to be removed"
        },
        "returns": {
          "_0": "error Always NO_ERROR for compatibility with LendLand core tooling"
        }
      },
      "getAccountLiquidity(address)": {
        "details": "The interface of this function is intentionally kept compatible with Compound and LendLand Core",
        "params": {
          "account": "The account get liquidity for"
        },
        "returns": {
          "error": "Always NO_ERROR for compatibility with LendLand core tooling",
          "liquidity": "Account liquidity in excess of liquidation threshold requirements,",
          "shortfall": "Account shortfall below liquidation threshold requirements"
        }
      },
      "getAllMarkets()": {
        "details": "The automatic getter may be used to access an individual market.",
        "returns": {
          "_0": "markets The list of market addresses"
        }
      },
      "getAssetsIn(address)": {
        "params": {
          "account": "The address of the account to pull assets for"
        },
        "returns": {
          "_0": "A list with the assets the account has entered"
        }
      },
      "getBorrowingPower(address)": {
        "details": "The interface of this function is intentionally kept compatible with Compound and LendLand Core",
        "params": {
          "account": "The account get liquidity for"
        },
        "returns": {
          "error": "Always NO_ERROR for compatibility with LendLand core tooling",
          "liquidity": "Account liquidity in excess of collateral requirements,",
          "shortfall": "Account shortfall below collateral requirements"
        }
      },
      "getHypotheticalAccountLiquidity(address,address,uint256,uint256)": {
        "details": "The interface of this function is intentionally kept compatible with Compound and LendLand Core",
        "params": {
          "account": "The account to determine liquidity for",
          "borrowAmount": "The amount of underlying to hypothetically borrow",
          "leTokenModify": "The market to hypothetically redeem/borrow in",
          "redeemTokens": "The number of tokens to hypothetically redeem"
        },
        "returns": {
          "error": "Always NO_ERROR for compatibility with LendLand core tooling",
          "liquidity": "Hypothetical account liquidity in excess of collateral requirements,",
          "shortfall": "Hypothetical account shortfall below collateral requirements"
        }
      },
      "getRewardDistributors()": {
        "returns": {
          "_0": "Array of RewardDistributor addresses"
        }
      },
      "getRewardsByMarket(address)": {
        "params": {
          "leToken": "The leToken to get the reward speeds for"
        },
        "returns": {
          "rewardSpeeds": "Array of total supply and borrow speeds and reward token for all reward distributors"
        }
      },
      "healAccount(address)": {
        "custom:access": "Not restricted",
        "custom:error": "CollateralExceedsThreshold error is thrown when the collateral is too big for healingSnapshotError is thrown if some leToken fails to return the account's supply and borrowsPriceError is thrown if the oracle returns an incorrect price for some asset",
        "params": {
          "user": "account to heal"
        }
      },
      "initialize(uint256,address)": {
        "params": {
          "accessControlManager": "Access control manager contract address",
          "loopLimit": "Limit for the loops can iterate to avoid the DOS"
        }
      },
      "isComptroller()": {
        "returns": {
          "_0": "Always true"
        }
      },
      "isMarketListed(address)": {
        "params": {
          "leToken": "leToken Address for the market to check"
        },
        "returns": {
          "_0": "listed True if listed otherwise false"
        }
      },
      "liquidateAccount(address,(address,address,uint256)[],bytes[])": {
        "custom:access": "Not restricted",
        "custom:error": "CollateralExceedsThreshold error is thrown when the collateral is too big for a batch liquidationInsufficientCollateral error is thrown when there is not enough collateral to cover the debtSnapshotError is thrown if some leToken fails to return the account's supply and borrowsPriceError is thrown if the oracle returns an incorrect price for some asset",
        "params": {
          "borrower": "the borrower address",
          "orders": "an array of liquidation orders"
        }
      },
      "liquidateBorrowVerify(address,address,address,address,uint256,uint256)": {
        "params": {
          "actualRepayAmount": "The amount of underlying being repaid",
          "borrower": "The address of the borrower",
          "leTokenBorrowed": "Asset which was borrowed by the borrower",
          "leTokenCollateral": "Asset which was used as collateral and will be seized",
          "liquidator": "The address repaying the borrow and seizing the collateral",
          "seizeTokens": "The amount of collateral token that will be seized"
        }
      },
      "liquidateCalculateSeizeTokens(address,address,uint256)": {
        "custom:error": "PriceError if the oracle returns an invalid price",
        "details": "Used in liquidation (called in leToken.liquidateBorrowFresh)",
        "params": {
          "actualRepayAmount": "The amount of leTokenBorrowed underlying to convert into leTokenCollateral tokens",
          "leTokenBorrowed": "The address of the borrowed leToken",
          "leTokenCollateral": "The address of the collateral leToken"
        },
        "returns": {
          "error": "Always NO_ERROR for compatibility with LendLand core tooling",
          "tokensToSeize": "Number of leTokenCollateral tokens to be seized in a liquidation"
        }
      },
      "mintVerify(address,address,uint256,uint256)": {
        "params": {
          "actualMintAmount": "The amount of the underlying asset being minted",
          "leToken": "Asset being minted",
          "mintTokens": "The number of tokens being minted",
          "minter": "The address minting the tokens"
        }
      },
      "owner()": {
        "details": "Returns the address of the current owner."
      },
      "pendingOwner()": {
        "details": "Returns the address of the pending owner."
      },
      "preLiquidateHook(address,address,address,uint256,bool,bytes[])": {
        "custom:error": "ActionPaused error is thrown if liquidations are paused in this marketMarketNotListed error is thrown if either collateral or borrowed token is not listedTooMuchRepay error is thrown if the liquidator is trying to repay more than allowed by close factorMinimalCollateralViolated is thrown if the users' total collateral is lower than the threshold for non-batch liquidationsInsufficientShortfall is thrown when trying to liquidate a healthy accountSnapshotError is thrown if some leToken fails to return the account's supply and borrowsPriceError is thrown if the oracle returns an incorrect price for some asset",
        "params": {
          "borrower": "The address of the borrower",
          "leTokenBorrowed": "Asset which was borrowed by the borrower",
          "leTokenCollateral": "Asset which was used as collateral and will be seized",
          "repayAmount": "The amount of underlying being repaid",
          "skipLiquidityCheck": "Allows the borrow to be liquidated regardless of the account liquidity"
        }
      },
      "preMintHook(address,address,uint256)": {
        "custom:access": "Not restricted",
        "custom:error": "ActionPaused error is thrown if supplying to this market is pausedMarketNotListed error is thrown when the market is not listedSupplyCapExceeded error is thrown if the total supply exceeds the cap after minting",
        "params": {
          "leToken": "The market to verify the mint against",
          "mintAmount": "The amount of underlying being supplied to the market in exchange for tokens",
          "minter": "The account which would get the minted tokens"
        }
      },
      "preRedeemHook(address,address,uint256,bytes[])": {
        "custom:access": "Not restricted",
        "custom:error": "ActionPaused error is thrown if withdrawals are paused in this marketMarketNotListed error is thrown when the market is not listedInsufficientLiquidity error is thrown if the withdrawal would lead to user's insolvencySnapshotError is thrown if some leToken fails to return the account's supply and borrowsPriceError is thrown if the oracle returns an incorrect price for some asset",
        "params": {
          "leToken": "The market to verify the redeem against",
          "redeemTokens": "The number of leTokens to exchange for the underlying asset in the market",
          "redeemer": "The account which would redeem the tokens"
        }
      },
      "preRepayHook(address,address,bytes[])": {
        "custom:access": "Not restricted",
        "custom:error": "ActionPaused error is thrown if repayments are paused in this marketMarketNotListed error is thrown when the market is not listed",
        "params": {
          "borrower": "The account which would borrowed the asset",
          "leToken": "The market to verify the repay against"
        }
      },
      "preSeizeHook(address,address,address,address)": {
        "custom:access": "Not restricted",
        "custom:error": "ActionPaused error is thrown if seizing this type of collateral is pausedMarketNotListed error is thrown if either collateral or borrowed token is not listedComptrollerMismatch error is when seizer contract or seized asset belong to different pools",
        "params": {
          "borrower": "The address of the borrower",
          "leTokenCollateral": "Asset which was used as collateral and will be seized",
          "liquidator": "The address repaying the borrow and seizing the collateral",
          "seizerContract": "Contract that tries to seize the asset (either borrowed leToken or Comptroller)"
        }
      },
      "preTransferHook(address,address,address,uint256)": {
        "custom:access": "Not restricted",
        "custom:error": "ActionPaused error is thrown if withdrawals are paused in this marketMarketNotListed error is thrown when the market is not listedInsufficientLiquidity error is thrown if the withdrawal would lead to user's insolvencySnapshotError is thrown if some leToken fails to return the account's supply and borrowsPriceError is thrown if the oracle returns an incorrect price for some asset",
        "params": {
          "dst": "The account which receives the tokens",
          "leToken": "The market to verify the transfer against",
          "src": "The account which sources the tokens",
          "transferTokens": "The number of leTokens to transfer"
        }
      },
      "redeemVerify(address,address,uint256,uint256)": {
        "params": {
          "leToken": "Asset being redeemed",
          "redeemAmount": "The amount of the underlying asset being redeemed",
          "redeemTokens": "The number of tokens being redeemed",
          "redeemer": "The address redeeming the tokens"
        }
      },
      "renounceOwnership()": {
        "details": "Leaves the contract without owner. It will not be possible to call `onlyOwner` functions. Can only be called by the current owner. NOTE: Renouncing ownership will leave the contract without an owner, thereby disabling any functionality that is only available to the owner."
      },
      "repayBorrowVerify(address,address,address,uint256,uint256)": {
        "params": {
          "actualRepayAmount": "The amount of underlying being repaid",
          "borrower": "The address of the borrower",
          "leToken": "Asset being repaid",
          "payer": "The address repaying the borrow"
        }
      },
      "seizeVerify(address,address,address,address,uint256)": {
        "params": {
          "borrower": "The address of the borrower",
          "leTokenBorrowed": "Asset which was borrowed by the borrower",
          "leTokenCollateral": "Asset which was used as collateral and will be seized",
          "liquidator": "The address repaying the borrow and seizing the collateral",
          "seizeTokens": "The number of collateral tokens to seize"
        }
      },
      "setAccessControlManager(address)": {
        "custom:access": "Only Governance",
        "custom:event": "Emits NewAccessControlManager event",
        "details": "Admin function to set address of AccessControlManager",
        "params": {
          "accessControlManager_": "The new address of the AccessControlManager"
        }
      },
      "setActionsPaused(address[],uint8[],bool)": {
        "custom:access": "Controlled by AccessControlManager",
        "details": "This function is restricted by the AccessControlManager",
        "params": {
          "actionsList": "List of action ids to pause/unpause",
          "marketsList": "Markets to pause/unpause the actions on",
          "paused": "The new paused state (true=paused, false=unpaused)"
        }
      },
      "setCloseFactor(uint256)": {
        "custom:access": "Controlled by AccessControlManager",
        "custom:event": "Emits NewCloseFactor on success",
        "params": {
          "newCloseFactorMantissa": "New close factor, scaled by 1e18"
        }
      },
      "setCollateralFactor(address,uint256,uint256)": {
        "custom:access": "Controlled by AccessControlManager",
        "custom:error": "MarketNotListed error is thrown when the market is not listedInvalidCollateralFactor error is thrown when collateral factor is too highInvalidLiquidationThreshold error is thrown when liquidation threshold is lower than collateral factorPriceError is thrown when the oracle returns an invalid price for the asset",
        "custom:event": "Emits NewCollateralFactor when collateral factor is updated    and NewLiquidationThreshold when liquidation threshold is updated",
        "details": "This function is restricted by the AccessControlManager",
        "params": {
          "leToken": "The market to set the factor on",
          "newCollateralFactorMantissa": "The new collateral factor, scaled by 1e18",
          "newLiquidationThresholdMantissa": "The new liquidation threshold, scaled by 1e18"
        }
      },
      "setForcedLiquidation(address,bool)": {
        "params": {
          "enable": "Whether to enable forced liquidations",
          "leTokenBorrowed": "Borrowed leToken"
        }
      },
      "setLiquidationIncentive(uint256)": {
        "custom:access": "Controlled by AccessControlManager",
        "custom:event": "Emits NewLiquidationIncentive on success",
        "details": "This function is restricted by the AccessControlManager",
        "params": {
          "newLiquidationIncentiveMantissa": "New liquidationIncentive scaled by 1e18"
        }
      },
      "setMarketBorrowCaps(address[],uint256[])": {
        "custom:access": "Controlled by AccessControlManager",
        "details": "This function is restricted by the AccessControlManagerA borrow cap of type(uint256).max corresponds to unlimited borrowing.Borrow caps smaller than the current total borrows are accepted. This way, new borrows will not be allowed until the total borrows amount goes below the new borrow cap",
        "params": {
          "leTokens": "The addresses of the markets (tokens) to change the borrow caps for",
          "newBorrowCaps": "The new borrow cap values in underlying to be set. A value of type(uint256).max corresponds to unlimited borrowing."
        }
      },
      "setMarketSupplyCaps(address[],uint256[])": {
        "custom:access": "Controlled by AccessControlManager",
        "details": "This function is restricted by the AccessControlManagerA supply cap of type(uint256).max corresponds to unlimited supply.Supply caps smaller than the current total supplies are accepted. This way, new supplies will not be allowed until the total supplies amount goes below the new supply cap",
        "params": {
          "leTokens": "The addresses of the markets (tokens) to change the supply caps for",
          "newSupplyCaps": "The new supply cap values in underlying to be set. A value of type(uint256).max corresponds to unlimited supply."
        }
      },
      "setMaxLoopsLimit(uint256)": {
        "params": {
          "limit": "Limit for the max loops can execute at a time"
        }
      },
      "setMinLiquidatableCollateral(uint256)": {
        "custom:access": "Controlled by AccessControlManager",
        "details": "This function is restricted by the AccessControlManager",
        "params": {
          "newMinLiquidatableCollateral": "The new min liquidatable collateral (in USD)."
        }
      },
      "setPriceOracle(address)": {
        "custom:error": "ZeroAddressNotAllowed is thrown when the new oracle address is zero",
        "custom:event": "Emits NewPriceOracle on success",
        "details": "Only callable by the admin",
        "params": {
          "newOracle": "Address of the new price oracle to set"
        }
      },
      "setPrimeToken(address)": {
        "params": {
          "_prime": "Address of the Prime contract"
        }
      },
      "supportMarket(address)": {
        "custom:access": "Only PoolRegistry",
        "custom:error": "MarketAlreadyListed is thrown if the market is already listed in this pool",
        "details": "Only callable by the PoolRegistry",
        "params": {
          "leToken": "The address of the market (token) to list"
        }
      },
      "transferOwnership(address)": {
        "details": "Starts the ownership transfer of the contract to a new account. Replaces the pending transfer if there is one. Can only be called by the current owner."
      },
      "transferVerify(address,address,address,uint256)": {
        "params": {
          "dst": "The account which receives the tokens",
          "leToken": "Asset being transferred",
          "src": "The account which sources the tokens",
          "transferTokens": "The number of leTokens to transfer"
        }
      },
      "updateDelegate(address,bool)": {
        "custom:access": "Not restricted",
        "custom:error": "ZeroAddressNotAllowed is thrown when delegate address is zeroDelegationStatusUnchanged is thrown if approval status is already set to the requested value",
        "custom:event": "DelegateUpdated emits on success",
        "params": {
          "approved": "Whether to grant (true) or revoke (false) the borrowing or redeeming rights",
          "delegate": "The address to update the rights for"
        }
      },
      "updatePrices(address,bytes[])": {
        "params": {
          "account": "Address of the account to get associated tokens with"
        }
      }
    },
    "stateVariables": {
      "poolRegistry": {
        "custom:oz-upgrades-unsafe-allow": "state-variable-immutable"
      }
    },
    "title": "Comptroller",
    "version": 1
  },
  "userdoc": {
    "errors": {
      "ActionPaused(address,uint8)": [
        {
          "notice": "Thrown when trying to perform an action that is paused"
        }
      ],
      "BorrowCapExceeded(address,uint256)": [
        {
          "notice": "Thrown if the borrow cap is exceeded"
        }
      ],
      "ComptrollerMismatch()": [
        {
          "notice": "Thrown when a market has an unexpected comptroller"
        }
      ],
      "DelegationStatusUnchanged()": [
        {
          "notice": "Thrown if delegate approval status is already set to the requested value"
        }
      ],
      "InsufficientLiquidity()": [
        {
          "notice": "Thrown when the account doesn't have enough liquidity to redeem or borrow"
        }
      ],
      "InsufficientShortfall()": [
        {
          "notice": "Thrown when trying to liquidate a healthy account"
        }
      ],
      "InvalidCollateralFactor()": [
        {
          "notice": "Thrown when collateral factor exceeds the upper bound"
        }
      ],
      "InvalidLiquidationThreshold()": [
        {
          "notice": "Thrown when liquidation threshold exceeds the collateral factor"
        }
      ],
      "MarketAlreadyListed(address)": [
        {
          "notice": "Thrown when trying to add a market that is already listed"
        }
      ],
      "MarketNotCollateral(address,address)": [
        {
          "notice": "Thrown when user is not member of market"
        }
      ],
      "MarketNotListed(address)": [
        {
          "notice": "Thrown when the market is not listed"
        }
      ],
      "MaxLoopsLimitExceeded(uint256,uint256)": [
        {
          "notice": "Thrown an error on maxLoopsLimit exceeds for any loop"
        }
      ],
      "MinimalCollateralViolated(uint256,uint256)": [
        {
          "notice": "Thrown during the liquidation if user's total collateral amount is lower than   a predefined threshold. In this case only batch liquidations (either liquidateAccount   or healAccount) are available."
        }
      ],
      "NonzeroBorrowBalance()": [
        {
          "notice": "Thrown if the user is trying to exit a market in which they have an outstanding debt"
        }
      ],
      "PriceError(address)": [
        {
          "notice": "Thrown when the oracle returns an invalid price for some asset"
        }
      ],
      "SnapshotError(address,address)": [
        {
          "notice": "Thrown if LeToken unexpectedly returned a nonzero error code while trying to get account snapshot"
        }
      ],
      "SupplyCapExceeded(address,uint256)": [
        {
          "notice": "Thrown if the supply cap is exceeded"
        }
      ],
      "TooMuchRepay()": [
        {
          "notice": "Thrown when trying to repay more than allowed by close factor"
        }
      ],
      "Unauthorized(address,address,string)": [
        {
          "notice": "Thrown when the action is prohibited by AccessControlManager"
        }
      ],
      "UnexpectedSender(address,address)": [
        {
          "notice": "Thrown when the action is only available to specific sender, but the real sender was different"
        }
      ],
      "ZeroAddressNotAllowed()": [
        {
          "notice": "Thrown if the supplied address is a zero address where it is not allowed"
        }
      ]
    },
    "events": {
      "ActionPausedMarket(address,uint8,bool)": {
        "notice": "Emitted when an action is paused on a market"
      },
      "DelegateUpdated(address,address,bool)": {
        "notice": "Emitted when the borrowing or redeeming delegate rights are updated for an account"
      },
      "IsForcedLiquidationEnabledUpdated(address,bool)": {
        "notice": "Emitted when forced liquidation is enabled or disabled for a market"
      },
      "MarketEntered(address,address)": {
        "notice": "Emitted when an account enters a market"
      },
      "MarketExited(address,address)": {
        "notice": "Emitted when an account exits a market"
      },
      "MarketSupported(address)": {
        "notice": "Emitted when a market is supported"
      },
      "MaxLoopsLimitUpdated(uint256,uint256)": {
        "notice": "Emitted when max loops limit is set"
      },
      "NewAccessControlManager(address,address)": {
        "notice": "Emitted when access control manager contract address is changed"
      },
      "NewBorrowCap(address,uint256)": {
        "notice": "Emitted when borrow cap for a leToken is changed"
      },
      "NewCloseFactor(uint256,uint256)": {
        "notice": "Emitted when close factor is changed by admin"
      },
      "NewCollateralFactor(address,uint256,uint256)": {
        "notice": "Emitted when a collateral factor is changed by admin"
      },
      "NewLiquidationIncentive(uint256,uint256)": {
        "notice": "Emitted when liquidation incentive is changed by admin"
      },
      "NewLiquidationThreshold(address,uint256,uint256)": {
        "notice": "Emitted when liquidation threshold is changed by admin"
      },
      "NewMinLiquidatableCollateral(uint256,uint256)": {
        "notice": "Emitted when the collateral threshold (in USD) for non-batch liquidations is changed"
      },
      "NewPriceOracle(address,address)": {
        "notice": "Emitted when price oracle is changed"
      },
      "NewPrimeToken(address,address)": {
        "notice": "Emitted when prime token contract address is changed"
      },
      "NewRewardsDistributor(address,address)": {
        "notice": "Emitted when a rewards distributor is added"
      },
      "NewSupplyCap(address,uint256)": {
        "notice": "Emitted when supply cap for a leToken is changed"
      }
    },
    "kind": "user",
    "methods": {
      "accessControlManager()": {
        "notice": "Returns the address of the access control manager contract"
      },
      "accountAssets(address,uint256)": {
        "notice": "Per-account mapping of \"assets you are in\""
      },
      "actionPaused(address,uint8)": {
        "notice": "Checks if a certain action is paused on a market"
      },
      "addRewardsDistributor(address)": {
        "notice": "Add a new RewardsDistributor and initialize it with all markets. We can add several RewardsDistributor contracts with the same rewardToken, and there could be overlaping among them considering the last reward block"
      },
      "allMarkets(uint256)": {
        "notice": "A list of all markets"
      },
      "approvedDelegates(address,address)": {
        "notice": "Whether the delegate is allowed to borrow or redeem on behalf of the user"
      },
      "borrowCaps(address)": {
        "notice": "Borrow caps enforced by borrowAllowed for each leToken address. Defaults to zero which restricts borrowing."
      },
      "borrowVerify(address,address,uint256)": {
        "notice": "Validates borrow, accrues interest and updates score in prime. Reverts on rejection. May emit logs."
      },
      "checkMembership(address,address)": {
        "notice": "Returns whether the given account is entered in a given market"
      },
      "closeFactorMantissa()": {
        "notice": "Multiplier used to calculate the maximum repayAmount when liquidating a borrow"
      },
      "enterMarkets(address[])": {
        "notice": "Add assets to be included in account liquidity calculation; enabling them to be used as collateral"
      },
      "exitMarket(address,bytes[])": {
        "notice": "Removes asset from sender's account liquidity calculation; disabling them as collateral"
      },
      "getAccountLiquidity(address)": {
        "notice": "Determine the current account liquidity with respect to liquidation threshold requirements"
      },
      "getAllMarkets()": {
        "notice": "Return all of the markets"
      },
      "getAssetsIn(address)": {
        "notice": "Returns the assets an account has entered"
      },
      "getBorrowingPower(address)": {
        "notice": "Determine the current account liquidity with respect to collateral requirements"
      },
      "getHypotheticalAccountLiquidity(address,address,uint256,uint256)": {
        "notice": "Determine what the account liquidity would be if the given amounts were redeemed/borrowed"
      },
      "getRewardDistributors()": {
        "notice": "Return all reward distributors for this pool"
      },
      "getRewardsByMarket(address)": {
        "notice": "Returns reward speed given a leToken"
      },
      "healAccount(address)": {
        "notice": "Seizes all the remaining collateral, makes msg.sender repay the existing   borrows, and treats the rest of the debt as bad debt (for each market).   The sender has to repay a certain percentage of the debt, computed as   collateral / (borrows * liquidationIncentive)."
      },
      "isComptroller()": {
        "notice": "A marker method that returns true for a valid Comptroller contract"
      },
      "isForcedLiquidationEnabled(address)": {
        "notice": "Flag indicating whether forced liquidation enabled for a market"
      },
      "isMarketListed(address)": {
        "notice": "Check if a market is marked as listed (active)"
      },
      "liquidateAccount(address,(address,address,uint256)[],bytes[])": {
        "notice": "Liquidates all borrows of the borrower. Callable only if the collateral is less than   a predefined threshold, and the account collateral can be seized to cover all borrows. If   the collateral is higher than the threshold, use regular liquidations. If the collateral is   below the threshold, and the account is insolvent, use healAccount."
      },
      "liquidateBorrowVerify(address,address,address,address,uint256,uint256)": {
        "notice": "Validates liquidateBorrow, accrues interest and updates score in prime. Reverts on rejection. May emit logs."
      },
      "liquidateCalculateSeizeTokens(address,address,uint256)": {
        "notice": "Calculate number of tokens of collateral asset to seize given an underlying amount"
      },
      "liquidationIncentiveMantissa()": {
        "notice": "Multiplier representing the discount on collateral that a liquidator receives"
      },
      "markets(address)": {
        "notice": "Official mapping of leTokens -> Market metadata"
      },
      "minLiquidatableCollateral()": {
        "notice": "Minimal collateral required for regular (non-batch) liquidations"
      },
      "mintVerify(address,address,uint256,uint256)": {
        "notice": "Validates mint, accrues interest and updates score in prime. Reverts on rejection. May emit logs."
      },
      "oracle()": {
        "notice": "Oracle which gives the price of any given asset"
      },
      "preBorrowHook(address,address,uint256,bytes[])": {
        "notice": "disable-eslint"
      },
      "preLiquidateHook(address,address,address,uint256,bool,bytes[])": {
        "notice": "Checks if the liquidation should be allowed to occur"
      },
      "preMintHook(address,address,uint256)": {
        "notice": "Checks if the account should be allowed to mint tokens in the given market"
      },
      "preRedeemHook(address,address,uint256,bytes[])": {
        "notice": "Checks if the account should be allowed to redeem tokens in the given market"
      },
      "preRepayHook(address,address,bytes[])": {
        "notice": "Checks if the account should be allowed to repay a borrow in the given market"
      },
      "preSeizeHook(address,address,address,address)": {
        "notice": "Checks if the seizing of assets should be allowed to occur"
      },
      "preTransferHook(address,address,address,uint256)": {
        "notice": "Checks if the account should be allowed to transfer tokens in the given market"
      },
      "prime()": {
        "notice": "Prime token address"
      },
      "redeemVerify(address,address,uint256,uint256)": {
        "notice": "Validates redeem, accrues interest and updates score in prime. Reverts on rejection. May emit logs."
      },
      "repayBorrowVerify(address,address,address,uint256,uint256)": {
        "notice": "Validates repayBorrow, accrues interest and updates score in prime. Reverts on rejection. May emit logs."
      },
      "seizeVerify(address,address,address,address,uint256)": {
        "notice": "Validates seize, accrues interest and updates score in prime. Reverts on rejection. May emit logs."
      },
      "setAccessControlManager(address)": {
        "notice": "Sets the address of AccessControlManager"
      },
      "setActionsPaused(address[],uint8[],bool)": {
        "notice": "Pause/unpause specified actions"
      },
      "setCloseFactor(uint256)": {
        "notice": "Sets the closeFactor to use when liquidating borrows"
      },
      "setCollateralFactor(address,uint256,uint256)": {
        "notice": "Sets the collateralFactor for a market"
      },
      "setForcedLiquidation(address,bool)": {
        "notice": "Enables forced liquidations for a market. If forced liquidation is enabled, borrows in the market may be liquidated regardless of the account liquidity"
      },
      "setLiquidationIncentive(uint256)": {
        "notice": "Sets liquidationIncentive"
      },
      "setMarketBorrowCaps(address[],uint256[])": {
        "notice": "Set the given borrow caps for the given leToken markets. Borrowing that brings total borrows to or above borrow cap will revert."
      },
      "setMarketSupplyCaps(address[],uint256[])": {
        "notice": "Set the given supply caps for the given leToken markets. Supply that brings total Supply to or above supply cap will revert."
      },
      "setMaxLoopsLimit(uint256)": {
        "notice": "Set the for loop iteration limit to avoid DOS"
      },
      "setMinLiquidatableCollateral(uint256)": {
        "notice": "Set the given collateral threshold for non-batch liquidations. Regular liquidations   will fail if the collateral amount is less than this threshold. Liquidators should use batch   operations like liquidateAccount or healAccount."
      },
      "setPriceOracle(address)": {
        "notice": "Sets a new price oracle for the Comptroller"
      },
      "setPrimeToken(address)": {
        "notice": "Sets the prime token contract for the comptroller"
      },
      "supplyCaps(address)": {
        "notice": "Supply caps enforced by mintAllowed for each leToken address. Defaults to zero which corresponds to minting not allowed"
      },
      "supportMarket(address)": {
        "notice": "Add the market to the markets mapping and set it as listed"
      },
      "transferVerify(address,address,address,uint256)": {
        "notice": "Validates transfer, accrues interest and updates score in prime. Reverts on rejection. May emit logs."
      },
      "updateDelegate(address,bool)": {
        "notice": "Grants or revokes the borrowing or redeeming delegate rights to / from an account  If allowed, the delegate will be able to borrow funds on behalf of the sender  Upon a delegated borrow, the delegate will receive the funds, and the borrower  will see the debt on their account  Upon a delegated redeem, the delegate will receive the redeemed amount and the approver  will see a deduction in his leToken balance"
      },
      "updatePrices(address,bytes[])": {
        "notice": "Update the prices of all the tokens associated with the provided account"
      }
    },
    "notice": "The Comptroller is designed to provide checks for all minting, redeeming, transferring, borrowing, lending, repaying, liquidating, and seizing done by the `leToken` contract. Each pool has one `Comptroller` checking these interactions across markets. When a user interacts with a given market by one of these main actions, a call is made to a corresponding hook in the associated `Comptroller`, which either allows or reverts the transaction. These hooks also update supply and borrow rewards as they are called. The comptroller holds the logic for assessing liquidity snapshots of an account via the collateral factor and liquidation threshold. This check determines the collateral needed for a borrow, as well as how much of a borrow may be liquidated. A user may borrow a portion of their collateral with the maximum amount determined by the markets collateral factor. However, if their borrowed amount exceeds an amount calculated using the market’s corresponding liquidation threshold, the borrow is eligible for liquidation. The `Comptroller` also includes two functions `liquidateAccount()` and `healAccount()`, which are meant to handle accounts that do not exceed the `minLiquidatableCollateral` for the `Comptroller`: - `healAccount()`: This function is called to seize all of a given user’s collateral, requiring the `msg.sender` repay a certain percentage of the debt calculated by `collateral/(borrows*liquidationIncentive)`. The function can only be called if the calculated percentage does not exceed 100%, because otherwise no `badDebt` would be created and `liquidateAccount()` should be used instead. The difference in the actual amount of debt and debt paid off is recorded as `badDebt` for each market, which can then be auctioned off for the risk reserves of the associated pool. - `liquidateAccount()`: This function can only be called if the collateral seized will cover all borrows of an account, as well as the liquidation incentive. Otherwise, the pool will incur bad debt, in which case the function `healAccount()` should be used instead. This function skips the logic verifying that the repay amount does not exceed the close factor.",
    "version": 1
  },
  "storageLayout": {
    "storage": [
      {
        "astId": 292,
        "contract": "contracts/Comptroller.sol:Comptroller",
        "label": "_initialized",
        "offset": 0,
        "slot": "0",
        "type": "t_uint8"
      },
      {
        "astId": 295,
        "contract": "contracts/Comptroller.sol:Comptroller",
        "label": "_initializing",
        "offset": 1,
        "slot": "0",
        "type": "t_bool"
      },
      {
        "astId": 1562,
        "contract": "contracts/Comptroller.sol:Comptroller",
        "label": "__gap",
        "offset": 0,
        "slot": "1",
        "type": "t_array(t_uint256)50_storage"
      },
      {
        "astId": 164,
        "contract": "contracts/Comptroller.sol:Comptroller",
        "label": "_owner",
        "offset": 0,
        "slot": "51",
        "type": "t_address"
      },
      {
        "astId": 284,
        "contract": "contracts/Comptroller.sol:Comptroller",
        "label": "__gap",
        "offset": 0,
        "slot": "52",
        "type": "t_array(t_uint256)49_storage"
      },
      {
        "astId": 57,
        "contract": "contracts/Comptroller.sol:Comptroller",
        "label": "_pendingOwner",
        "offset": 0,
        "slot": "101",
        "type": "t_address"
      },
      {
        "astId": 151,
        "contract": "contracts/Comptroller.sol:Comptroller",
        "label": "__gap",
        "offset": 0,
        "slot": "102",
        "type": "t_array(t_uint256)49_storage"
      },
      {
        "astId": 22769,
        "contract": "contracts/Comptroller.sol:Comptroller",
        "label": "_accessControlManager",
        "offset": 0,
        "slot": "151",
        "type": "t_contract(IAccessControlManagerV8)25078"
      },
      {
        "astId": 22774,
        "contract": "contracts/Comptroller.sol:Comptroller",
        "label": "__gap",
        "offset": 0,
        "slot": "152",
        "type": "t_array(t_uint256)49_storage"
      },
      {
        "astId": 10516,
        "contract": "contracts/Comptroller.sol:Comptroller",
        "label": "oracle",
        "offset": 0,
        "slot": "201",
        "type": "t_contract(ResilientOracleInterface)31074"
      },
      {
        "astId": 10519,
        "contract": "contracts/Comptroller.sol:Comptroller",
        "label": "closeFactorMantissa",
        "offset": 0,
        "slot": "202",
        "type": "t_uint256"
      },
      {
        "astId": 10522,
        "contract": "contracts/Comptroller.sol:Comptroller",
        "label": "liquidationIncentiveMantissa",
        "offset": 0,
        "slot": "203",
        "type": "t_uint256"
      },
      {
        "astId": 10529,
        "contract": "contracts/Comptroller.sol:Comptroller",
        "label": "accountAssets",
        "offset": 0,
        "slot": "204",
        "type": "t_mapping(t_address,t_array(t_contract(LeToken)14502)dyn_storage)"
      },
      {
        "astId": 10535,
        "contract": "contracts/Comptroller.sol:Comptroller",
        "label": "markets",
        "offset": 0,
        "slot": "205",
        "type": "t_mapping(t_address,t_struct(Market)10512_storage)"
      },
      {
        "astId": 10540,
        "contract": "contracts/Comptroller.sol:Comptroller",
        "label": "allMarkets",
        "offset": 0,
        "slot": "206",
        "type": "t_array(t_contract(LeToken)14502)dyn_storage"
      },
      {
        "astId": 10545,
        "contract": "contracts/Comptroller.sol:Comptroller",
        "label": "borrowCaps",
        "offset": 0,
        "slot": "207",
        "type": "t_mapping(t_address,t_uint256)"
      },
      {
        "astId": 10548,
        "contract": "contracts/Comptroller.sol:Comptroller",
        "label": "minLiquidatableCollateral",
        "offset": 0,
        "slot": "208",
        "type": "t_uint256"
      },
      {
        "astId": 10553,
        "contract": "contracts/Comptroller.sol:Comptroller",
        "label": "supplyCaps",
        "offset": 0,
        "slot": "209",
        "type": "t_mapping(t_address,t_uint256)"
      },
      {
        "astId": 10561,
        "contract": "contracts/Comptroller.sol:Comptroller",
        "label": "_actionPaused",
        "offset": 0,
        "slot": "210",
        "type": "t_mapping(t_address,t_mapping(t_enum(Action)10161,t_bool))"
      },
      {
        "astId": 10565,
        "contract": "contracts/Comptroller.sol:Comptroller",
        "label": "rewardsDistributors",
        "offset": 0,
        "slot": "211",
        "type": "t_array(t_contract(RewardsDistributor)19539)dyn_storage"
      },
      {
        "astId": 10569,
        "contract": "contracts/Comptroller.sol:Comptroller",
        "label": "rewardsDistributorExists",
        "offset": 0,
        "slot": "212",
        "type": "t_mapping(t_address,t_bool)"
      },
      {
        "astId": 10574,
        "contract": "contracts/Comptroller.sol:Comptroller",
        "label": "isForcedLiquidationEnabled",
        "offset": 0,
        "slot": "213",
        "type": "t_mapping(t_address,t_bool)"
      },
      {
        "astId": 10590,
        "contract": "contracts/Comptroller.sol:Comptroller",
        "label": "prime",
        "offset": 0,
        "slot": "214",
        "type": "t_contract(IPrime)25317"
      },
      {
        "astId": 10597,
        "contract": "contracts/Comptroller.sol:Comptroller",
        "label": "approvedDelegates",
        "offset": 0,
        "slot": "215",
        "type": "t_mapping(t_address,t_mapping(t_address,t_bool))"
      },
      {
        "astId": 10602,
        "contract": "contracts/Comptroller.sol:Comptroller",
        "label": "__gap",
        "offset": 0,
        "slot": "216",
        "type": "t_array(t_uint256)47_storage"
      },
      {
        "astId": 17097,
        "contract": "contracts/Comptroller.sol:Comptroller",
        "label": "maxLoopsLimit",
        "offset": 0,
        "slot": "263",
        "type": "t_uint256"
      },
      {
        "astId": 17102,
        "contract": "contracts/Comptroller.sol:Comptroller",
        "label": "__gap",
        "offset": 0,
        "slot": "264",
        "type": "t_array(t_uint256)49_storage"
      }
    ],
    "types": {
      "t_address": {
        "encoding": "inplace",
        "label": "address",
        "numberOfBytes": "20"
      },
      "t_array(t_contract(LeToken)14502)dyn_storage": {
        "base": "t_contract(LeToken)14502",
        "encoding": "dynamic_array",
        "label": "contract LeToken[]",
        "numberOfBytes": "32"
      },
      "t_array(t_contract(RewardsDistributor)19539)dyn_storage": {
        "base": "t_contract(RewardsDistributor)19539",
        "encoding": "dynamic_array",
        "label": "contract RewardsDistributor[]",
        "numberOfBytes": "32"
      },
      "t_array(t_uint256)47_storage": {
        "base": "t_uint256",
        "encoding": "inplace",
        "label": "uint256[47]",
        "numberOfBytes": "1504"
      },
      "t_array(t_uint256)49_storage": {
        "base": "t_uint256",
        "encoding": "inplace",
        "label": "uint256[49]",
        "numberOfBytes": "1568"
      },
      "t_array(t_uint256)50_storage": {
        "base": "t_uint256",
        "encoding": "inplace",
        "label": "uint256[50]",
        "numberOfBytes": "1600"
      },
      "t_bool": {
        "encoding": "inplace",
        "label": "bool",
        "numberOfBytes": "1"
      },
      "t_contract(IAccessControlManagerV8)25078": {
        "encoding": "inplace",
        "label": "contract IAccessControlManagerV8",
        "numberOfBytes": "20"
      },
      "t_contract(IPrime)25317": {
        "encoding": "inplace",
        "label": "contract IPrime",
        "numberOfBytes": "20"
      },
      "t_contract(LeToken)14502": {
        "encoding": "inplace",
        "label": "contract LeToken",
        "numberOfBytes": "20"
      },
      "t_contract(ResilientOracleInterface)31074": {
        "encoding": "inplace",
        "label": "contract ResilientOracleInterface",
        "numberOfBytes": "20"
      },
      "t_contract(RewardsDistributor)19539": {
        "encoding": "inplace",
        "label": "contract RewardsDistributor",
        "numberOfBytes": "20"
      },
      "t_enum(Action)10161": {
        "encoding": "inplace",
        "label": "enum Action",
        "numberOfBytes": "1"
      },
      "t_mapping(t_address,t_array(t_contract(LeToken)14502)dyn_storage)": {
        "encoding": "mapping",
        "key": "t_address",
        "label": "mapping(address => contract LeToken[])",
        "numberOfBytes": "32",
        "value": "t_array(t_contract(LeToken)14502)dyn_storage"
      },
      "t_mapping(t_address,t_bool)": {
        "encoding": "mapping",
        "key": "t_address",
        "label": "mapping(address => bool)",
        "numberOfBytes": "32",
        "value": "t_bool"
      },
      "t_mapping(t_address,t_mapping(t_address,t_bool))": {
        "encoding": "mapping",
        "key": "t_address",
        "label": "mapping(address => mapping(address => bool))",
        "numberOfBytes": "32",
        "value": "t_mapping(t_address,t_bool)"
      },
      "t_mapping(t_address,t_mapping(t_enum(Action)10161,t_bool))": {
        "encoding": "mapping",
        "key": "t_address",
        "label": "mapping(address => mapping(enum Action => bool))",
        "numberOfBytes": "32",
        "value": "t_mapping(t_enum(Action)10161,t_bool)"
      },
      "t_mapping(t_address,t_struct(Market)10512_storage)": {
        "encoding": "mapping",
        "key": "t_address",
        "label": "mapping(address => struct ComptrollerStorage.Market)",
        "numberOfBytes": "32",
        "value": "t_struct(Market)10512_storage"
      },
      "t_mapping(t_address,t_uint256)": {
        "encoding": "mapping",
        "key": "t_address",
        "label": "mapping(address => uint256)",
        "numberOfBytes": "32",
        "value": "t_uint256"
      },
      "t_mapping(t_enum(Action)10161,t_bool)": {
        "encoding": "mapping",
        "key": "t_enum(Action)10161",
        "label": "mapping(enum Action => bool)",
        "numberOfBytes": "32",
        "value": "t_bool"
      },
      "t_struct(Market)10512_storage": {
        "encoding": "inplace",
        "label": "struct ComptrollerStorage.Market",
        "members": [
          {
            "astId": 10503,
            "contract": "contracts/Comptroller.sol:Comptroller",
            "label": "isListed",
            "offset": 0,
            "slot": "0",
            "type": "t_bool"
          },
          {
            "astId": 10505,
            "contract": "contracts/Comptroller.sol:Comptroller",
            "label": "collateralFactorMantissa",
            "offset": 0,
            "slot": "1",
            "type": "t_uint256"
          },
          {
            "astId": 10507,
            "contract": "contracts/Comptroller.sol:Comptroller",
            "label": "liquidationThresholdMantissa",
            "offset": 0,
            "slot": "2",
            "type": "t_uint256"
          },
          {
            "astId": 10511,
            "contract": "contracts/Comptroller.sol:Comptroller",
            "label": "accountMembership",
            "offset": 0,
            "slot": "3",
            "type": "t_mapping(t_address,t_bool)"
          }
        ],
        "numberOfBytes": "128"
      },
      "t_uint256": {
        "encoding": "inplace",
        "label": "uint256",
        "numberOfBytes": "32"
      },
      "t_uint8": {
        "encoding": "inplace",
        "label": "uint8",
        "numberOfBytes": "1"
      }
    }
  }
}